:100000000C94D7010C94CD550C94AC500C94563FE5
:100010000C949C450C94CD550C94CD550C94CD5519
:100020000C94CD550C94CD550C94CD550C94CD55C8
:100030000C94CD550C94CD550C94CD550C94704822
:100040000C94CD550C94CD550C94CD550C94CD55A8
:100050000C94CD550C94CD550C949D500C94C845E2
:100060000C94CD550C94CD550C94CD550C94CD5588
:100070000C94CD550C94A4330C94CD550C949D4602
:100080000C94C6460C94924D0C94CD550C94CD55C1
:10009000331133128032D532D780318D319700AC95
:1000A000AC331233138033133314802EAF2F1380ED
:1000B00030C530DD00AC2132A132A58028002809EE
:1000C0008032A532A900AD7033143315803144312C
:1000D0005400AC8E319731A100ACB631A131AB00E8
:1000E000ACC031AB31B500ACCA280928198030F555
:1000F000310A00AC5132D732D980331533168031F2
:10010000B531BF00ACD431BF31C900ACDE31C9312B
:10011000D300ACE831D331DD00ACF22819281B80C4
:1001200032D932DB80281B2878802878287C8028E8
:100130007C28F48032DB32DD8028F4290F803316EE
:10014000331780331733188032A932AD8032AD3285
:10015000B18031DD31E700ACFC32DD32DF8032DFEF
:1001600032E18032E132E38033183319000B552934
:10017000862B16802B162CA680313231448031E735
:1001800031F100AD0631F131FB00AD1031FB32052C
:1001900000AD1A3205320F00AD24320F321900AD16
:1001A0002E3319331A8032E332E580331A331B8041
:1001B000331B331C80331C331D803180318D8031E3
:1001C00064317280315431648030A830C580331D71
:1001D000331E80331E331F80290F29118032E532F0
:1001E000E780331F33208032E732E98032E932EB97
:1001F0008032EB32ED8032ED32EF8032EF32F1803F
:1002000032F132F38032F332F58033203321803201
:10021000B132B500AD7432F532F78032F732F98081
:1002200032F932FB803060308400ABFD308430A87E
:100230008032FB32FD8032FD32FF00AD7832FF3379
:100240000100AD7A332133228033223323803323DC
:100250003324802FB32FF380332433258033253389
:10026000268033263327802FF3303380317231805C
:1002700000AC9E3327332800AD7C332833298033EC
:1002800029332A80330133038032B532B980332ACF
:10029000332B8032B932BD80332B332C00AD7D320D
:1002A000BD32C18033033305803033306000ABD0C2
:1002B000332C332D803305330780332D332E803399
:1002C0002E332F80332F333080333033318032C19F
:1002D00032C58033073309803331333280330933F9
:1002E0000B80330B330D80330D330F802E362EAF42
:1002F000802CA62D6E802F132F638032C532C980CB
:1003000032C932CD802D6E2E36802F632FB38032CE
:1003100019322300AD383223322D00AD423332334F
:100320003380310A311E00AC6633333334802911F7
:10033000297680311E313200AC7A33343335803245
:100340002D32378032373241803241324B80324B4E
:100350003255803255325F80325F32698032693285
:1003600073803273327D80327D328600AD4C3286AE
:10037000328F00AD55328F329800AD5E329832A187
:1003800000AD6732CD32D18032D132D58030DD3010
:10039000F500AC39330F3311802976297C80297C14
:1003A000298080298029848029842986800011243D
:1003B0001FBECFEFCDBFDFE3DEBFE0E9F0E043E0FB
:1003C00017C0B591A59135912591059107FD0CC0F8
:1003D00095918591EF01F92FE82F05900D92A217C5
:1003E000B307D9F7FE0104C01D92A217B307E1F7C6
:1003F000ED3AF40731F70E9441550C94FF01F8944F
:02040000FFCF2C
:100402004F4B0D00646562756720706172616D65A6
:10041200746572206D7573742062652062657477ED
:1004220065656E203020284C656173742920616EE9
:1004320064203420284D6F737429200D00342E312E
:100442002E30007625730D0A0400312E302E310035
:1004520025730D0A0400556E6B6E6F776E2E0D0AB2
:1004620004004572726F722067657474696E67204A
:100472005468696E67204E616D652E0D0A04002C6A
:10048200002564004F4B0D0A04004572726F722EF4
:100492002057692D466920636F6D6D616E64206619
:1004A2006F726D61742069732077696669203C738D
:1004B2007369643E5B2C3C706173733E2C5B6175A7
:1004C2007468547970655D5D0D0A04002D2D2D2D23
:1004D2002D2D2D2D2D2D2D2D2D2D2D2D2D2D2D2D4A
:1004E2002D2D2D2D2D2D2D2D2D2D2D2D2D2D2D2D3A
:1004F2002D2D2D2D2D2D2D2D0D0A556E6B6E6F77F9
:100502006E20636F6D6D616E642E204C6973742072
:100512006F6620617661696C61626C6520636F6DE4
:100522006D616E64733A0D0A72657365740D0A64C7
:1005320065766963650D0A7468696E670D0A72658E
:10054200636F6E6E6563740D0A76657273696F6EA2
:100552000D0A636C695F76657273696F6E0D0A7757
:10056200696669203C737369643E5B2C3C706173FD
:10057200733E2C5B61757468547970655D5D0D0A1C
:1005820064656275670D0A2D2D2D2D2D2D2D2D2DB6
:100592002D2D2D2D2D2D2D2D2D2D2D2D2D2D2D2D89
:1005A2002D2D2D2D2D2D2D2D2D2D2D2D2D2D2D2D79
:1005B2002D2D2D0D0A04000D0A436F6D6D616E64C1
:1005C20020746F6F206C6F6E670D007265736574B7
:1005D200007265636F6E6E656374007769666900A9
:1005E2007468696E670064657669636500636C6947
:1005F2005F76657273696F6E0076657273696F6E8E
:10060200006465627567002D2D2D2D2D42454749E9
:100612004E205055424C4943204B45592D2D2D2DEE
:100622002D0D0A25730D0A2D2D2D2D2D454E4420FD
:100632005055424C4943204B45592D2D2D2D2D0D02
:100642000A040025303258002564002A2E706F6F8C
:100652006C2E6E74702E6F7267005468696E67201C
:100662004E616D65206973206E6F742070726573C0
:10067200656E742C206572726F72207479706520B9
:1006820025642C207573657220646566696E6564E5
:10069200207468696E672049442069732075736508
:1006A200641B5B306D005468696E67204E616D6536
:1006B20020726561642066726F6D207468652064C3
:1006C20065766963652069732025731B5B306D0055
:1006D20041575320456E64706F696E7420697320B0
:1006E2006E6F742070726573656E7420696E205728
:1006F200494E432C206569746865722072652D70BD
:10070200726F766973696F6E206F72206D696372A2
:100712006F63686970204157532073616E64626F22
:100722007820656E64706F696E742077696C6C20D6
:10073200626520757365641B5B306D004157532001
:10074200456E64706F696E742072656164206672B2
:100752006F6D2057494E432069732025731B5B3010
:100762006D004D4348502E494F542E41434345534B
:1007720053504F494E54000000000000000000009A
:10078200000000313233343536373839300000005A
:1007920000000000000000000000000000002461D2
:1007A20077732F7468696E67732F25732F7368616F
:1007B200646F772F757064617465007B2273746156
:1007C2007465223A7B227265706F72746564223A94
:1007D2007B22746F67676C65223A25647D7D7D009C
:1007E20025732F73656E736F7273007B224C69677A
:1007F2006874223A25642C2254656D70223A25646D
:100802002E253032647D00246177732F7468696EFF
:1008120067732F25732F736861646F772F75706408
:100822006174652F64656C74610022746F67676C14
:1008320065223A00746F7069633A2025731B5B303E
:100842006D007061796C6F61643A2025731B5B30B7
:100852006D006131677174387374746969676E33DE
:100862002E696F742E75732D656173742D322E612E
:100872006D617A6F6E6177732E636F6D0055736968
:100882006E6720746865204157532053616E64621D
:100892006F7820656E64706F696E74203A202573DC
:1008A2001B5B306D004D4348502E494F54006D691B
:1008B20063726F63686970002564002573042025E4
:1008C2007320257320001B5B306D0D001B5B3337DB
:1008D2006D4E4F524D414C1B5B33376D001B5B33EA
:1008E200326D2020474F4F441B5B33376D001B5B3B
:1008F20033316D2020204241441B5B33376D001B96
:100902005B33316D1B5B376D204552524F521B5B7F
:1009120032376D1B5B33376D001B5B33376D202025
:10092200204E4F4E451B5B33376D001B5B33336DDF
:100932005741524E494E471B5B33376D001B5B33A9
:10094200346D204E4F544943451B5B33376D001BBA
:100952005B33356D202020494E464F1B5B33376D8C
:10096200001B5B33316D202044454255471B5B32EF
:10097200376D1B5B33376D00CD453B51D345513944
:10098200DD453B17E2457050E8459D4AEF45615011
:10099200FB45525003461A4F511B002828002419C8
:1009A200001C3200431302152300408D0230050063
:1009B20056A5001723000837001614004632001B04
:1009C200170002050080E001771409474B004199A6
:1009D20002200A00453D04122D00511B0028280068
:1009E2002419001C320043AC0015230040D700300C
:1009F200050056A5001723000837001614004632DA
:100A0200001B170002050080A000777102472A0030
:100A120041DC00200A00452701122D00511B00284D
:100A220028002419001C3200434B001519004073A2
:100A32000030050056A500172300083700161400E1
:100A42004632001B170002050080500077FA00476B
:100A52002400417300200A00456900122D00280D70
:100A6200002414001C3200433A00150B00407300AE
:100A7200111700300200172000080E00161D000199
:100A820003004630001B1700020500470900413CE5
:100A920000200A00454800121A00280D0024140004
:100AA2001C3200150B0040730011170030020017B2
:100AB2002000080E00161D000103004630001B171F
:100AC20000020500470900413C00200A0045480099
:100AD200121A002826001C3E00152B00114500307A
:100AE2000200171800082300163C000102001B3206
:100AF20000020500471600200C00122A00A95554D6
:100B020055EA52BE4EE44EF64EAC55AF55000000CB
:100B120000DD4B254A3F5446542855E64C2355E008
:100B220054064ADA48CFFFFFFF00C900E82400005C
:100B320000525C5F256008E655E655511FE655E612
:100B420055CE48DF48F04801491B492D493F4951DC
:030B5200496349AB
:010B5500FFA0
:100B5600EF92FF920F931F93CF93DF9300D0CDB701
:100B6600DEB78C0110921B3380911933823020F04E
:100B7600833009F497C084C280911E3380FF80C2FF
:100B8600C8010E94E353C80108960E94E35341E05E
:100B960050E068EA70E3C8010E94633A0F2EF8EA53
:100BA600EF2EF0E3FF2EF02D69EA70E3F701838D57
:100BB600948D0E94AB4B482F50E069EA70E3C80160
:100BC6000E94633A4AE050E06DEA70E3C8010E9471
:100BD600633A42E050E067EB70E3C8010E94633A73
:100BE600F70161897289FB0101900020E9F73197CD
:100BF600AF01461B570BC8010E94633AF70187896C
:100C0600908D892B31F48091BB309091BC30892B2B
:100C160051F142E050E06BEB70E3C8010E94633A89
:100C26000F2EF8EAEF2EF0E3FF2EF02DF7014389A1
:100C3600548954274527542765897689C8010E9417
:100C4600633A42E050E06FEB70E3C8010E94633AFA
:100C5600F7014789508D542745275427618D728D9A
:100C6600C8010E94633AC8010E940C4B882309F40C
:100C76000AC280911E338E7F80931E3385E0809357
:100C86001B3340E355E760E070E08FE092E30E949B
:100C9600363182E08093193380911C338E7F8093A6
:100CA6001C33EEC180911E33882309F4E9C1482F15
:100CB60050E080FDE5C180E08F5F682F9A01082E25
:100CC60002C0359527950A94E2F720FFF5CF81E01B
:100CD60090E002C0880F991F6A95E2F7883009F400
:100CE600D8C020F4843009F450C0CAC1803109F458
:100CF60050C1803209F0C4C180911C3381FFC0C14C
:100D060080911C338D7F80931C3319821A82C8010F
:100D16000E94E353C80108960E94E35389818170BB
:100D2600806C8E7F89831A8241E050E0BE016F5F3E
:100D36007F4FC8010E94633A41E050E0BE016E5FFA
:100D46007F4FC8010E94633AC8010E940C4B88235A
:100D560009F496C180911E338F7D80931E33809156
:100D66001D33806180931D3380911C338B7F80936C
:100D76001C3340E355E760E070E08BEF91E30E949F
:100D8600363185E080931B337BC185E092E30E9478
:100D96000E4EC8010E94E353C80108960E94E35311
:100DA60041E050E064E571E3C8010E94633A0F2E0A
:100DB600F4E5EF2EF1E3FF2EF02D65E571E3F70183
:100DC600868597850E94AB4B482F50E065E571E319
:100DD600C8010E94633A42E050E069E571E3C80148
:100DE6000E94633AF70145815681542745275427C7
:100DF60067817085C8010E94633AF7018081867019
:100E0600823071F441E050E06EE571E3C8010E9462
:100E1600633A41E050E06DE571E3C8010E94633A30
:100E2600E4E5F1E3438550E064857585C8010E94D9
:100E3600633A80911E3382FD04C08091543183FF52
:100E460030C1C8010E940C4B882309F42AC1809145
:100E56001E338B7F80931E3380915431867082308F
:100E660009F015C180911D33806280931D330FC137
:100E76009827892798279C0121503109A8EEB3E0CD
:100E86000E94BB50AB01BC0185E092E30E94363163
:100E9600F7C0C8010E94E353C80108960E94E353B5
:100EA60041E050E064E671E3C8010E94633A0F2E08
:100EB600F4E6EF2EF1E3FF2EF02D65E671E3F70180
:100EC600848595850E94AB4B482F50E065E671E31B
:100ED600C8010E94633A41E050E06AE671E3C80146
:100EE6000E94633A41E050E069E671E3C8010E945E
:100EF600633A42E050E06BE671E3C8010E94633A50
:100F0600F701478150855427452754276185728507
:100F1600C8010E94633A41E050E06FE671E3C80100
:100F26000E94633AC8010E940C4B8823D1F080913D
:100F36001E33877F80931E3380911D338460809398
:100F46001D3380911C33877F80931C3340E355E724
:100F560060E070E081EF91E30E94363185E0809396
:100F66001B338091B5309091B630009709F488C054
:100F76009827892798279C0121503109A8EEB3E0CC
:100F86000E94BB50AB01BC0185E092E30E94363162
:100F960077C0C8010E94E353C80108960E94E35334
:100FA60041E050E060E871E3C8010E94633A0F2E09
:100FB600F0E8EF2EF1E3FF2EF02D61E871E3F70183
:100FC600838594850E94AB4B482F50E061E871E31E
:100FD600C8010E94633A41E050E066E871E3C80147
:100FE6000E94633A41E050E065E871E3C8010E945F
:100FF600633A42E050E067E871E3C8010E94633A51
:10100600F701478150855427452754276185728506
:10101600C8010E94633AC8010E940C4B8823D1F094
:1010260080911E338F7E80931E3380911D3388609E
:1010360080931D3380911C338F7E80931C3340E355
:1010460055E760E070E087EE91E30E94363185E077
:1010560080931B338091B5309091B630009781F024
:101066009827892798279C0121503109A8EEB3E0DB
:101076000E94BB50AB01BC0185E092E30E94363171
:101086008091193311C086E080931B33F9CF85E038
:1010960080931B338091B5309091B630009781F3E1
:1010A600E7CE10921933ECCF0F900F90DF91CF91CE
:0A10B6001F910F91FF90EF90089535
:1010C0002F923F924F925F926F927F928F929F9258
:1010D000AF92BF92CF92DF92EF92FF920F931F9346
:1010E000CF93DF93CDB7DEB7C455D109CDBFDEBFF7
:1010F0008B0169017A01813411F08435E9F424E02F
:1011000030E0AE014F5F5F4FC701B6010E94713CF6
:10111000811147C28A8126968FAF2697E0910B33C3
:10112000F0910C33309709F43CC2AE014B5B5F4F3A
:1011300061E08981099535C28234E9F424E030E028
:10114000AE014F5F5F4FC701B6010E94713C811134
:1011500028C28A8126968FAF2697E0910B33F091B3
:101160000C33309709F41DC2AE014B5B5F4F62E058
:101170008981099516C2833409F077C02CE030E0EC
:10118000AE014B5B5F4FC701B6010E94713C8111FC
:1011900008C22F968FAD2F9788230CF441C0482F9B
:1011A000082E000C550B2E962FAD2E973BE02303F7
:1011B000F0011124EA5CF14D9185349FF001359FD7
:1011C000F00D1124EA5CF14D918791E090876196D2
:1011D0002EAD3FAD6197285031092683378320918A
:1011E0000D3330910E33B9016F5F7F4F29F060935B
:1011F0000D3370930E3306C02E5F3F4F20930D3397
:1012000030930E339BE0949FF001959FF00D1124D5
:10121000EA5CF14D20910D3330910E3324833583F8
:10122000898382E090E08A839B8329968EAD9FAD6F
:1012300029978C839D832D968CAD9DADAEADBFADB2
:101240002D978E839F83A887B987E0910B33F09108
:101250000C33309709F4A5C1AE014F5F5F4F64E0D6
:101260002E968FAD2E9709959CC1843411F08B3446
:1012700071F524E030E0AE014F5F5F4FC701B6016A
:101280000E94713C81118DC1898126968FAF26976E
:101290009A8127969FAF279791110CC02BE082026D
:1012A000F0011124EA5CF14D2B813C812850310979
:1012B00026833783E0910B33F0910C33309709F498
:1012C00070C1AE014B5B5F4F65E009956AC18A341E
:1012D000E1F424E430E0AE014F5F5F4FC701B60197
:1012E0000E94713C81115DC1E0910933F0910A3394
:1012F000309709F456C125964CAD5DAD6EAD7FAD0E
:101300002597CE01019609954CC1863451F0883459
:1013100069F08D3409F0DDC00F2EF6E0AF2EF02D10
:1013200009C00F2EF6E0AF2EF02D04C00F2EF9E00D
:10133000AF2EF02D20E130E0AE014B5B5F4FC701D7
:10134000B6010E94713C81112CC16296BFAC6297BC
:1013500065962EAD3FAD65976B2D0B2C000C770B72
:101360008B2D9BE08902F0011124EA5CF14D12867D
:101370002F968EAD9FAD2F976196AEADBFAD6197A5
:1013800029964EAD5FAD299749875A872D964CAC6B
:101390005DAC6EAC7FAC2D974B865C866D867E8691
:1013A000448155812417350709F0FBC0181619062A
:1013B0000CF07DC04C018017910708F078C00097B1
:1013C00009F4EFC02BE0269FF001279FF00D1124B8
:1013D000EA5CF14D20813181232B09F4E2C02BE03E
:1013E000269FF001279FF00D1124EA5CF14D228128
:1013F0003381232B09F4D5C02BE0269FF001279FD2
:10140000F00D1124EA5CF14D2085213009F0C9C0AE
:10141000CA0EDB1EE11CF11C8D839E832BE0269FF0
:10142000C001279F900D1124FC01EA5CF14D3F01A2
:101430002F01F2E04F0E511C130128E0220E311C47
:10144000F201008111818016910608F48401F301F4
:10145000408151819801C701B6010E94713C811100
:10146000A0C0F3018081918189839A830B831C83BF
:101470008D819E81801B910B8D839E83E0910B3328
:10148000F0910C33309731F0AE014F5F5F4F6A2D12
:101490008B2D0995C00ED11EE11CF11CF10180813C
:1014A000882309F47EC0801A910A51F67AC08B8392
:1014B0009C8319821A82E0910B33F0910C333097A0
:1014C00009F46FC0AE014F5F5F4F6A2D8B2D0995F8
:1014D00068C0853431F0873431F08C3481F517E001
:1014E00003C017E001C018E028E030E0AE014F5F14
:1014F0005F4FC701B6010E94713C811152C08981C2
:101500004D815E812B813C8127962EAF3FAF27977F
:101510002BE08202F0011124EA5CF14D2481358137
:1015200042175307F1F5E0910B33F0910C333097EC
:10153000C1F1AE014B5B5F4F612F099532C082351F
:1015400081F524E130E0AE014F5F5F4FC701B60186
:101550000E94713C811125C04D815E816F8178852B
:101560008091C1329091C232A091C332B091C43205
:10157000481759076A077B0781F4E0910733F09118
:101580000833309751F029853A854B855C85698110
:101590007A818B819C810989099510920733109279
:1015A0000833CC5ADF4FCDBFDEBFDF91CF911F9103
:1015B0000F91FF90EF90DF90CF90BF90AF909F90F2
:1015C0008F907F906F905F904F903F902F900895F5
:1015D000CF92DF92EF92FF920F931F93CF93DF93FF
:1015E000CDB7DEB72997CDBFDEBF8C0110921B337C
:1015F000198280911C3382FD08C080911C3383FDC9
:1016000004C080911C3384FF05C010921933C801B7
:101610000E945E4FF80186859785892B19F4809189
:101620001933CAC180911933823039F0833009F4FB
:1016300081C0813009F0A9C1ABC180911C3380FD0C
:1016400070C0C090B530D090B6308FE092E30E9469
:101650000E4E7801F8E0EF0EF11C41E050E0BE01C3
:101660006F5F7F4FC7010E9496399C019981907FDF
:10167000903209F046C08E010E5F1F4F84E0F801E2
:1016800011928A95E9F741E050E0B801C7010E9444
:101690000B3941E050E0BE016D5F7F4FC7010E94F2
:1016A0000B39B8016E5F7F4F41E050E0C7010E94E7
:1016B0000B3941E050E0BE016B5F7F4FC7010E94D4
:1016C0000B398D81882309F466C170C180911E3366
:1016D000806280931E3380911D338F7E80931D33F3
:1016E000960121503109A8EEB3E00E94BB50AB0136
:1016F000BC0185E092E30E94363184E080931B3385
:1017000047C182E080931B33898180931A332093F1
:10171000E3323093E43210921933C8010E945E4FD5
:1017200037C110921933C8010E945E4F81E0809347
:101730001B332EC17801F8E0EF0EF11C41E050E0C0
:10174000BE016F5F7F4FC7010E94963989818295E4
:101750008F708930C1F138F4833009F4DCC08430F3
:1017600009F4DDC015C18B3009F485C08D3009F056
:101770000FC180911D3384FF0BC180911C3382FD0A
:1017800007C18BEF91E30E940E4E1A821B8241E04B
:1017900050E0BE016E5F7F4FC7010E940B39809100
:1017A0001D338F7E80931D338091B5309091B6307C
:1017B000892B29F080911E33806280931E33C701EC
:1017C0000E94E353E5C080911D3382FFE1C0809108
:1017D0001C3383FDDDC081EF91E30E940E4EBE01FC
:1017E0006E5F7F4F88E0FB0111928A95E9F741E037
:1017F00050E0C7010E940B3941E050E0BE016D5F2F
:101800007F4FC7010E940B3941E050E0BE01695F84
:101810007F4FC7010E940B3941E050E0BE01685F75
:101820007F4FC7010E940B399885809169319813C9
:1018300012C09F8180916A3198130FC041E050E03F
:10184000BE01675F7F4FC7010E940B3989858038D1
:1018500031F013E005C010E003C010E001C010E05B
:1018600080911D338B7F80931D33C7010E94E3530A
:10187000109319338DC080911D3383FF89C08091EF
:101880001C3384FD85C087EE91E30E940E4EBE019D
:101890006E5F7F4F84E0FB0111928A95E9F741E08A
:1018A00050E0C7010E940B3941E050E0BE016D5F7E
:1018B0007F4FC7010E940B398B818230E1F441E0F8
:1018C00050E0BE016C5F7F4FC7010E940B3941E0C1
:1018D00050E0BE016B5F7F4FC7010E940B399D81B5
:1018E00080918531981309C09C8180918631981729
:1018F00031F010E005C010E003C010E001C013E0BB
:1019000080911D33877F80931D33C7010E94E3536D
:10191000109319333DC0C8010E941E1B39C08E01AF
:101920000E5F1F4F84E0F80111928A95E9F741E0BC
:1019300050E0B801C7010E940B3941E050E0BE0100
:101940006D5F7F4FC7010E940B3941E050E0BE013F
:101950006B5F7F4FC7010E940B39B8016E5F7F4FED
:1019600041E050E0C7010E940B399C8180915D31BC
:1019700098130EC09D8180915E31981309C08091AB
:101980001D338F7D80931D3303C087E0809319330F
:101990008091193311C0DC24CD24DC2483E08093B2
:1019A0001933C114D10409F4A8CE90CE1092193382
:1019B00083E080931B33ECCF2996CDBFDEBFDF9150
:1019C000CF911F910F91FF90EF90DF90CF900895EE
:1019D000ABE0B0E0EEEEFCE00C94414C6C017B011E
:1019E0008A01FC0116821782838181FFCCC1CE015E
:1019F00001963C01F6019381F70193FD859193FFD8
:101A000081917F01882309F4BAC1853239F493FDAD
:101A1000859193FF81917F01853229F4B60190E091
:101A20000E941A3FE7CF912C212C312CFFE1F315B6
:101A3000D8F08B3279F038F4803279F08332A1F427
:101A4000232D20611DC08D3261F0803369F4232D78
:101A5000216016C0832D8260382EE32DE4603E2E77
:101A60002AC0F32DF8601DC037FC2DC020ED280FD3
:101A70002A3040F08E32B9F436FC81C1232D206427
:101A8000322E19C036FE06C08AE0989E200D112421
:101A9000922E11C0EAE02E9E200D1124222EF32D4D
:101AA000F0623F2E08C08C3621F4832D8068382EDA
:101AB00002C0883641F4F70193FD859193FF81912F
:101AC0007F018111B3CF982F9F7D9554933028F4D7
:101AD0000C5F1F4F9FE399830DC0833631F083372E
:101AE00071F0833509F059C021C0F80180818983E4
:101AF0000E5F1F4F88248394912C530113C028013B
:101B0000F2E04F0E511CF801A080B18036FE03C0F8
:101B1000692D70E002C06FEF7FEFC5010E94715226
:101B20004C018201F32DFF773F2E16C0280122E0E1
:101B3000420E511CF801A080B18036FE03C0692D11
:101B400070E002C06FEF7FEFC5010E9466524C014A
:101B5000F32DF0683F2E820133FC1BC0822D90E0F4
:101B600088169906B0F4B60180E290E00E941A3F10
:101B70002A94F4CFF50137FC859137FE81915F01FE
:101B8000B60190E00E941A3F21102A9421E0821AA7
:101B900091088114910471F7E8C0843611F08936F8
:101BA00041F5F80137FE07C0608171818281938120
:101BB0000C5F1F4F08C060817181072E000C880BDD
:101BC000990B0E5F1F4FF32DFF763F2E97FF09C035
:101BD00090958095709561957F4F8F4F9F4FF068DE
:101BE0003F2E2AE030E0A3010E942130882E861883
:101BF00045C0853731F4232D2F7EB22E2AE030E008
:101C000025C0932D997FB92E8F36C1F018F48835F1
:101C100079F0B5C0803719F0883721F0B0C0E92FCE
:101C2000E061BE2EB4FE0DC0FB2DF460BF2E09C0D6
:101C300034FE0AC0292F2660B22E06C028E030E00C
:101C400005C020E130E002C020E132E0F801B7FE3B
:101C500007C060817181828193810C5F1F4F06C034
:101C60006081718180E090E00E5F1F4FA3010E94B0
:101C70002130882E8618FB2DFF773F2E36FE0DC0B3
:101C8000232D2E7FA22E891458F434FE0BC032FC73
:101C900009C0832D8E7EA82E05C0B82CA32C03C0AE
:101CA000B82C01C0B92CA4FE0FC0FE01E80DF11D37
:101CB0008081803321F49A2D997EA92E09C0A2FE3D
:101CC00006C0B394B39404C08A2D867809F0B39407
:101CD000A3FC11C0A0FE06C0B21488F4280C922CFC
:101CE0009B180EC0B21460F4B60180E290E00E942E
:101CF0001A3FB394F7CFB21418F42B1802C0982CE3
:101D0000212CA4FE10C0B60180E390E00E941A3F8F
:101D1000A2FE17C0A1FC03C088E790E002C088E5DE
:101D200090E0B6010CC08A2D867859F0A1FE02C061
:101D30008BE201C080E2A7FC8DE2B60190E00E9438
:101D40001A3F891438F4B60180E390E00E941A3FEC
:101D50009A94F7CF8A94F301E80DF11D8081B601C2
:101D600090E00E941A3F8110F5CF222009F442CE64
:101D7000B60180E290E00E941A3F2A94F6CFF60165
:101D80008681978102C08FEF9FEF2B96E2E10C9442
:021D90008A4C7B
:101D9200CF92DF92EF92FF920F931F930E94424BDA
:101DA2000E949C320E94E64D8AE091E30E94EC542C
:101DB2008AE091E30E943C550E941F51811105C0A7
:101DC20080910E28846080930E288AE091E30E941D
:101DD200A63A80937529882329F080910E28846081
:101DE20080930E288AE091E30E94EC548AE091E30A
:101DF2000E9413540E9473460E94343848EE53E006
:101E020060E070E089E192E30E94363140E257E4FB
:101E120066E170E0C12CD12C760100E010E098015F
:101E220086B38074080F111D211D311D86B3807287
:101E3200C80ED11CE11CF11C415051096109710904
:101E420079F7003913422B40310508F0BEC080E912
:101E5200C81683E2D8068BE0E806F10408F06CC0ED
:101E620089E0E7EAF8E4ACE7B8E201900D928A95DE
:101E7200E1F78AE0E0EBF8E4ADE9B8E201900D9217
:101E82008A95E1F71F9282E08F938AEB98E49F9301
:101E92008F9382EF98E29F938F930E948649E8E99D
:101EA200F2E30F2EFAEFCF2ED12CE12CF12CF02DF4
:101EB200C082D182E282F382C482D582E682F78234
:101EC200CF010E943E18EFE8F2E3C082D182E282A3
:101ED200F382C482D582E682F782CF010E943E1845
:101EE200E6E8F2E31082118212821382C12CD12C15
:101EF2007601C394C482D582E682F782CF010E9422
:101F02003E18EDE7F2E31082118212821382C4823C
:101F1200D582E682F782CF010E943E1880910E2878
:101F220088608F7D806480930E280F900F900F90B1
:101F32000F900F900F90AAC0E8E9F2E384EF91E0CE
:101F4200A0E0B0E080839183A283B38384839583EE
:101F5200A683B783CF010E943E18EFE8F2E3108216
:101F6200118212821382C12CD12C7601C394C482B5
:101F7200D582E682F782CF010E943E18E6E8F2E3BC
:101F82001082118212821382C482D582E682F78283
:101F9200CF010E943E18EDE7F2E310821182128215
:101FA2001382C482D582E682F782CF010E943E1854
:101FB20080910E28877F80628F7B80930E2860E05D
:101FC20087E395E50E94C84944C0E8E9F2E38AEF55
:101FD20090E0A0E0B0E080839183A283B383848306
:101FE2009583A683B783CF010E943E18EFE8F2E300
:101FF2001082118212821382C12CD12C7601C394D9
:10200200C482D582E682F782CF010E943E18E6E8BA
:10201200F2E31082118212821382C482D582E68296
:10202200F782CF010E943E18EDE7F2E3108211829F
:1020320012821382C482D582E682F782CF010E9485
:102042003E1880910E2888608F7D8F7B80930E28AA
:102052001DC00E949C328FE498E29F938F9389E087
:1020620098E49F938F9381E199E29F938F930E94CB
:1020720086496EE178E281E199E20E94724E0F9008
:102082000F900F900F900F900F9012C061E087E3B6
:1020920095E50E94C8498AE091E30E94FE5244E617
:1020A20050E060E070E083E292E30E943631D1CFEB
:0E20B2001F910F91FF90EF90DF90CF90089557
:1020C000AF92BF92CF92DF92EF92FF920F931F9346
:1020D000CF93DF93CDB7DEB72697CDBFDEBF7C01B0
:1020E0006B016091BD327091BE328091BF32909190
:1020F000C032611571058105910509F4FDC08901A2
:102100005A0122E030E0A7010E94713C8111F6C023
:102110008091BD329091BE32A091BF32B091C03259
:10212000BC01CD016E5F7F4F8F4F9F4F6093BD32DB
:102130007093BE328093BF329093C03222E030E081
:10214000AE014B5F5F4F0E94713C8111D9C08091FD
:10215000BD329091BE32A091BF32B091C032BC016D
:10216000CD016E5F7F4F8F4F9F4F6093BD32709355
:10217000BE328093BF329093C03222E030E0AE0195
:102180004F5F5F4F0E94713C8111BCC08091BD3296
:102190009091BE32A091BF32B091C032BC01CD014E
:1021A0006E5F7F4F8F4F9F4F6093BD327093BE32F3
:1021B0008093BF329093C03222E030E0AE014D5F99
:1021C0005F4F0E94713C81119FC08091BD32909100
:1021D000BE32A091BF32B091C032BC01CD016E5F62
:1021E0007F4F8F4F9F4F6093BD327093BE3280936D
:1021F000BF329093C032F7012081318132272327EB
:102200003227208331832D813E81322723273227B5
:10221000F801E05CFF4F2083318349815A815427C4
:102220004527542749835A834B815C81542745278E
:1022300054274B835C83220F331FA8010E94713CFB
:10224000811164C0F801E05CFF4F20813181220FD1
:10225000331F8091BD329091BE32A091BF32B091B8
:10226000C032BC01CD01620F731F811D911D6093AF
:10227000BD327093BE328093BF329093C0322981B9
:102280003A81A6010E94713C811142C029813A81A4
:102290008091BD329091BE32A091BF32B091C032D8
:1022A000BC01CD01620F731F811D911D6093BD3272
:1022B0007093BE328093BF329093C0322B813C81A9
:1022C000A5010E94713C811125C02B813C81409168
:1022D000BD325091BE326091BF327091C032420F18
:1022E000531F611D711D4093BD325093BE326093E8
:1022F000BF327093C0320FC084EF0DC084EF0BC0AB
:1023000084EF09C084EF07C084EF05C084EF03C0E9
:1023100084EF01C084EF2696CDBFDEBFDF91CF9161
:102320001F910F91FF90EF90DF90CF90BF90AF90F3
:0223300008950E
:10233200CF92DF92EF92FF92CF93DF93EB018B313B
:1023420009F4EEC020F4893009F4F2C021C18C32C4
:1023520021F0823309F4CBC01BC18881813009F09E
:102362005FC080911533882309F183ED91E30E94C8
:102372000E4E10921533E8E9F2E38AEF90E0A0E006
:10238200B0E080839183A283B38384839583A68301
:10239200B783CF010E943E1848EE53E060E070E040
:1023A20089EC91E30E9436310E94965180910E2869
:1023B2008A708830C1F4EFE8F2E38AEF90E0A0E09F
:1023C200B0E080839183A283B38384839583A683C1
:1023D200B783CF010E943E1880910E288260877BCE
:1023E200806180930E2880910E2885FF16C08F7D14
:1023F20080930E28E8E9F2E388EE93E0A0E0B0E0F3
:1024020080839183A283B38384839583A683B783D6
:1024120083E08087CF010E943E180E94854E59C0FA
:10242200811157C0E6E8F2E3108211821282138210
:10243200C12CD12C7601C394C482D582E682F78264
:10244200CF010E943E18EDE7F2E310821182128260
:102452001382C482D582E682F782CF010E943E189F
:1024620080910E2886FD22C0EFE8F2E310821182ED
:102472001282138281E090E0A0E0B0E08483958331
:10248200A683B783CF010E943E18E8E9F2E38AEF00
:1024920090E0A0E0B0E080839183A283B383848341
:1024A2009583A683B783CF010E943E1880910E28A0
:1024B2008D7E886080930E2842E350E060E070E0F9
:1024C20085EB91E30E94363180910E2881608093E2
:1024D2000E28E091D732F091D832309709F458C0E3
:1024E20080910E2880FD54C08881099551C08BE1EE
:1024F20098E20E94284C81114BC080910E2880FFE7
:1025020009C085EB91E30E940E4E80910E288E7FCA
:1025120080930E2880910E288B7F80930E2838C0DE
:1025220088819981892BA1F1CB010E94E54430C0B9
:10253200FB01ED59FF4F808181112AC031978081C3
:102542001F928F938AE496E49F938F9382EF98E28F
:102552009F938F930E948649BE018CE798E20E9466
:102562005B54BE016F5D7F4F8DE998E20E945B5420
:1025720081E08093153340E050E0BA0183ED91E3AE
:102582000E9436310F900F900F900F900F900F9086
:0E259200DF91CF91FF90EF90DF90CF900895F2
:1025A000CF92DF92EF92FF92CF93DF938091092831
:1025B000982F957051F4E0914431F091453167E9DD
:1025C00071E381EA91E309951FC083FD1DC0E0918D
:1025D0005031F09151310995811116C0809109282F
:1025E00081FD12C040E157E260E070E081EA91E3D2
:1025F0000E94363180910E288F7780930E2880912B
:10260000092888608093092880910E2881FD0BC0DD
:10261000E0915031F09151310995882309F4E3C0DC
:102620000E949D55E0C00E949A55DC015096ED91A4
:10263000FC9151978081082E000C990B0E94345315
:10264000C82F0E94B94A6B017C010E948553672BF9
:10265000682B692B09F1E0915031F09151310995C6
:102660008823D1F080910E28806880930E28809175
:10267000A5329091A632A091A732B091A832C81687
:10268000D906EA06FB0641F0C092A532D092A632E6
:10269000E092A732F092A832C23009F4A4C030F020
:1026A000C33009F1C43009F099C09DC00E9417479A
:1026B00060910A2870910B2880910C2890910D2828
:1026C000E0914631F091473109958F3F31F4809187
:1026D0000E28846080930E2886C080910E28806129
:1026E00080930E2880C0E0915231F09153310995CA
:1026F000882331F0E0914831F0914931099573C058
:102700000E949A55EC010E94E80A873071F00E94FD
:10271000A355823019F0843021F007C00E94A655DD
:1027200004C00E9485530E948E53CE010E94AB05C7
:102730000E94A3550E949A55FC01C484D5840E942E
:102740009A55DC011896ED90FC9019970E949A55C5
:10275000DC015096ED91FC915197808120E030E0B2
:10276000A601B701082E000C990B0E94F034E091ED
:102770005031F091513109958823A9F180910E28AB
:102780008F7E8B7F80930E2881EA91E30E940E4E0C
:1027900087E991E30E940E4E809109288B7F877F05
:1027A0008093092884FF05C0E0914A31F0914B31B4
:1027B00009950E94B94A61317E40810591059CF0DE
:1027C000E0914E31F0914F310995E889F989808186
:1027D000082E000C990B0E94284805C080910E28F5
:1027E000846080930E2864EF71E080E090E0DF91D8
:0C27F000CF91FF90EF90DF90CF90089504
:1027FC00CF92DF92EF92FF920E9485536B017C0186
:10280C000E946E54882309F487C02091C532309100
:10281C00C6324091C7325091C832C701B6010E94EE
:10282C00CA5516161706180619060CF086C0C09263
:10283C00C532D092C632E092C732F092C832E3E190
:10284C00FFE280E5DF011D928A95E9F78FE498E2BB
:10285C009F938F9382EE97E49F938F93FF93EF93C5
:10286C000E94864980910E280F900F900F900F9028
:10287C000F900F9081FFCFC00E9429427C010E94D3
:10288C008C55482FE92FC701FF2024F4882799275E
:10289C008E199F0924E630E0B9010E944A4E9F939D
:1028AC008F93C701B9010E944A4E7F936F93EF93A8
:1028BC004F938DEE97E49F938F9386EA9CE29F93C0
:1028CC008F930E948649AC018DB79EB70A968DBF37
:1028DC009EBF141615068CF566EA7CE283E19FE236
:1028EC000E94685480913233882321F08150809368
:1028FC00323323C0E6E8F2E384EF91E0A0E0B0E0ED
:10290C0080839183A283B38384839583A683B783C7
:10291C00CF010E943E1811C0E6E8F2E3108211824A
:10292C001282138281E090E0A0E0B0E08483958372
:10293C00A683B783CF010E943E1880910E2883FD99
:10294C0042C081FF11C0E8E9F2E381E090E0A0E031
:10295C00B0E080839183A283B383148215821682A4
:10296C001782CF010E943E1880910E2884FD2BC047
:10297C000E946E54882391F0EFE8F2E381E090E03E
:10298C00A0E0B0E080839183A283B383148215828C
:10299C0016821782CF010E943E1815C080910E2816
:1029AC0088238CF4EFE8F2E38AEF90E0A0E0B0E04B
:1029BC0080839183A283B38384839583A683B78317
:1029CC00CF010E943E1880910E2882FF12C0EDE7C5
:1029DC00F2E381E090E0A0E0B0E080839183A283F9
:1029EC00B3831482158216821782CF010E943E187F
:1029FC0017C0EDE7F2E3108211821282138281E09C
:102A0C0090E0A0E0B0E084839583A683B783CF01E8
:102A1C000E943E1805C080910E2883FFA5CFD3CF0E
:102A2C0064E670E080E090E0FF90EF90DF90CF9054
:022A3C000895FB
:102A3E004F925F926F927F928F929F92AF92BF92C0
:102A4E00FF920F931F93CF93DF9300D000D0CDB79B
:102A5E00DEB7F82EB62E29013A0120E030E0A901AA
:102A6E006CE070E0CB010E946C3B20E030E0A901ED
:102A7E006CE870E180E090E00E946C3B20E030E07A
:102A8E00A9016CEA77E082E090E00E946C3B21E0C5
:102A9E0030E040E050E068E171E180E090E00E94BB
:102AAE001F3A8111BFC020E034E040E050E060E00A
:102ABE0074E180E090E00E941F3A8111B5C064E19C
:102ACE0070E180E090E00E9467479923C4F76CEBB9
:102ADE0077E082E090E00E94674760FD19C00FEC3E
:102AEE0017E061E070E080E090E00E94D54A6CE073
:102AFE0070E0CB010E9467476E39704D8D4A904150
:102B0E0021F00150110968F703C0012B09F48EC0A2
:102B1E00FF2079F02DE735ED4CE15CE36CEA77E0D0
:102B2E0082E090E00E946C3B812C912C5401939496
:102B3E000DC0BB2039F0812C912C5401689487F87C
:102B4E00939404C0812C912C54019394A30192016F
:102B5E006CE870E180E090E00E946C3B0E94C32420
:102B6E00DC01CB019F70AA27BB27803A9340A105B9
:102B7E00B10510F0689481F8A501940160EA74E142
:102B8E0080E090E00E946C3BAE014F5F5F4F60EAC9
:102B9E0074E180E090E00E94084F811109C08981A4
:102BAE009A81AB81BC8188169906AA06BB0621F7CD
:102BBE0021E63FE242E55FEE6CE070E0CB010E9461
:102BCE006C3B00ED17E062E070E080E090E00E9468
:102BDE00D54AF11017C06CE870E180E090E00E94D9
:102BEE0067476633764283459240B9F420E030E081
:102BFE00A9016CE870E180E090E00E946C3B0E94BD
:102C0E00444A17C06CEA77E082E090E00E94674782
:102C1E00633C714C8D45974D59F00150110999F651
:102C2E0080E007C080E005C080E003C080E001C006
:102C3E0081E02496CDBFDEBFDF91CF911F910F9122
:102C4E00FF90BF90AF909F908F907F906F905F900E
:042C5E004F900895F6
:102C6200EF92FF920F931F93CF93DF93CDB7DEB70F
:102C7200C854D109CDBFDEBF88230CF4E3C02115AF
:102C8200310509F4E1C0E82E082E000CFF089BE094
:102C92008902D0011124AA5CB14D18969C91992306
:102CA20009F4D4C0D901623009F0A8C087300CF011
:102CB200CFC09BE09E9DF0019F9DF00D1124EA5C28
:102CC200F14D918590FFC6C04130E1F42D913C91C8
:102CD200232B61F08BE08E9DF0018F9DF00D11246E
:102CE200EA5CF14D9260918780E0B9C08BE08E9DE5
:102CF200F0018F9DF00D1124EA5CF14D9D7F9187CB
:102D020080E0ADC04330E1F42D913C91232B61F082
:102D12008BE08E9DF0018F9DF00D1124EA5CF14D48
:102D22009061918780E09BC08BE08E9DF0018F9D2A
:102D3200F00D1124EA5CF14D9F7E918780E08FC0F7
:102D42004430E1F42D913C91232B61F08BE08E9D78
:102D5200F0018F9DF00D1124EA5CF14D9064918792
:102D620080E07DC08BE08E9DF0018F9DF00D1124DF
:102D7200EA5CF14D9F7B918780E071C0423009F09F
:102D82006BC00034110508F069C089838BE08E9D09
:102D9200F0018F9DF00D1124EA5CF14D8481958143
:102DA2008B839C8382E08A83A80160E070E04D837C
:102DB2005E836F83788780E4F901DE0119960190C2
:102DC2000D928A95E1F728E430E0AE014F5F5F4F44
:102DD20061E582E00E94BC4D8D3F61F428E430E061
:102DE200AE014F5F5F4F61ED82E00E94BC4D8111E9
:102DF20003C035C080E033C082EF31C04E838D8383
:102E02008D919D910D90BC91A02D89839A83AB8366
:102E1200BC838BE08E9DF0018F9DF00D1124EA5C46
:102E2200F14D848195818F83988728E030E0AE014F
:102E32004F5F5F4F6FE482E00E94BC4D882379F0C0
:102E420087EF0DC08AEF0BC08AEF09C08AEF07C077
:102E52008AEF05C08AEF03C08AEF01C08AEFC85B20
:102E6200DF4FCDBFDEBFDF91CF911F910F91FF905A
:042E7200EF90089540
:102E7600CF92DF92EF92FF921F93CF93DF93CDB75E
:102E8600DEB72697CDBFDEBF1B821C821D821E8247
:102E960061E874E40E94465589839A83009709F491
:102EA600C7C09E012F5F3F4F790110E0F701819364
:102EB60091937F011F5F61E874E480E090E00E94D7
:102EC6004655009719F0133089F7C3C0E980FA8098
:102ED600E114F10409F4B5C08B819C81009729F4B3
:102EE6008D819E81892B81F415C02D813E81232BF6
:102EF60059F40E9490559EEF980F923008F498C0AE
:102F0600813041F012E016C08D819E810E9490555D
:102F1600182F97C040E250E0B7018CE798E20E9474
:102F2600CA5010929D2881E390E08093F2289093F6
:102F3600F32824C040E250E0B7018CE798E20E94F3
:102F4600CA506B817C8140E450E08DE998E20E9492
:102F5600CA501F921F9383E894E49F938F9382EF46
:102F660098E29F938F930E9486490F900F900F903F
:102F76000F900F900F90112309F45AC086E894E43D
:102F86009F938F930E94284D0E946E540F900F902E
:102F9600882321F00E949A550E945E4F80910E2848
:102FA60088233CF48F7780930E280E949A550E94BE
:102FB600F03B0E94E750E6E8F2E3108211821282AB
:102FC6001382C12CD12C7601C394C482D582E682A9
:102FD600F782CF010E943E18EDE7F2E310821182DC
:102FE60012821382C482D582E682F782CF010E94C2
:102FF6003E18EFE8F2E31082118212821382C48235
:10300600D582E682F782CF010E943E18E8E9F2E314
:103016008AEF90E0A0E0B0E080839183A283B3833F
:1030260084839583A683B783CF010E943E1818C078
:103036008CE894E49F938F930E94284D0F900F90F5
:103046000FC0113009F466CF98F3143008F472CF2C
:10305600EFCFE980FA80E114F10409F03DCF6ACFA1
:103066002696CDBFDEBFDF91CF911F91FF90EF90E7
:06307600DF90CF900895E9
:10307C00CF93DF93EC018885813009F47DC008F48F
:10308C00B6C08230F1F1833009F0EBC089E692E3EF
:10309C000E940E4E83E792E30E940E4E8C819D811E
:1030AC00AE81BF81892B8A2B8B2B21F488E08093F6
:1030BC006604D7C088819981AA81BB81892B8A2B10
:1030CC008B2B21F488E080936504CBC0A3E7B2E39B
:1030DC001296CD93DC931397E9E6F2E3C283D38384
:1030EC0082E390E58D939C93119782E290E5808327
:1030FC009183488159816A817B81CD010E9436314F
:10310C00B0C085E592E30E940E4E8FE592E30E94DB
:10311C000E4E8C819D81AE81BF81892B8A2B8B2B8E
:10312C0021F484E0809366049CC088819981AA81F3
:10313C00BB81892B8A2B8B2B21F484E08093650433
:10314C0090C0AFE5B2E31296CD93DC931397E5E50F
:10315C00F2E3C283D38382E190E58D939C93119724
:10316C0082E090E580839183488159816A817B81DB
:10317C00CD010E94363175C081E492E30E940E4E5F
:10318C008BE492E30E940E4E8C819D81AE81BF81B7
:10319C00892B8A2B8B2B21F482E08093660461C0EF
:1031AC0088819981AA81BB81892B8A2B8B2B21F455
:1031BC0082E08093650455C0ABE4B2E31296CD93E4
:1031CC00DC931397E1E4F2E3C283D38382EF9FE4B1
:1031DC008D939C93119782EE9FE480839183488119
:1031EC0059816A817B81CD010E9436313AC08DE2D2
:1031FC0092E30E940E4E87E392E30E940E4E8C8166
:10320C009D81AE81BF81892B8A2B8B2B21F481E090
:10321C008093660426C088819981AA81BB81892B01
:10322C008A2B8B2B21F481E0809365041AC0A7E3D1
:10323C00B2E31296CD93DC931397EDE2F2E3C283E3
:10324C00D38382ED9FE48D939C93119782EC9FE442
:10325C0080839183488159816A817B81CD010E9451
:08326C003631DF91CF91089586
:103274002F923F924F925F926F927F928F929F9282
:10328400AF92BF92CF92DF92EF92FF920F931F9370
:10329400CF93DF93CDB7DEB72C97CDBFDEBF962F8C
:1032A4009F779A8389830115110539F0F7013896C0
:1032B400EC0DFD1DEB83FC8304C0F9013896EB8310
:1032C400FC83EB81FC81ED33F64008F0ABC03601A2
:1032D400680149015A01162F082F0E945A4C811186
:1032E400A3C02B813C81C901A0E0B0E0DC01992797
:1032F4008827802B9C01AD01312B2D833E834F8386
:1033040058876CE870E180E090E00E946C3B22E01A
:1033140030E040E050E068E770E180E090E00E9437
:103324006C3B19861A861B861C8607EE13E0AE01D9
:103334004B5F5F4F68E770E180E090E00E94084FC8
:103344000E94BB55882321F00E94F64B8FEF6DC07D
:103354008D8181FD0AC0AE01475F5F4F60E074E07C
:1033640085E190E00E94084F0DC0053F81E01807F9
:1033740030F461E070E080E090E00E94D54A0150B2
:103384001109A8F60E94BB55811109C029843A8409
:103394004B845C84211431044104510421F40E94BF
:1033A400F64B8DEF42C028E030E0AE014F5F5F4F37
:1033B400C201B1010E94F92588E0280E311C411C8C
:1033C400511CA114B10431F09401A501C201B10151
:1033D4000E94F925C114D10451F0C201B101660D56
:1033E400771D811D911D9701A6010E94F9258985EC
:1033F4009A85AB85BC85880F991FAA1FBB1F880FB0
:10340400991FAA1FBB1F9C01AD0122606CE670E1ED
:1034140080E090E00E946C3B0E94F64B0E94BB55FA
:10342400819503C08FEF01C08FEF2C96CDBFDEBF17
:10343400DF91CF911F910F91FF90EF90DF90CF908C
:10344400BF90AF909F908F907F906F905F904F90C0
:063454003F902F90089547
:10345A008F929F92AF92BF92CF92DF92EF92FF929A
:10346A000F931F93CF93DF938C01DC011696CD90B7
:10347A00DD90ED90FC901997C091DF32D091E03247
:10348A0014961D921C9215978091AD329091AE328E
:10349A00A091AF32B091B032C816D906EA06FB063F
:1034AA0008F065C08090AD329090AE32A090AF32F5
:1034BA00B090B03280911733882329F10E941955B0
:1034CA00A0E0B0E04091A9325091AA326091AB32AB
:1034DA007091AC3284179507A607B70720F48FEFCF
:1034EA009FEFA0E0B0E04091A9325091AA326091DA
:1034FA00AB327091AC32841A950AA60AB70A880EC2
:10350A00991EAA1EBB1E209791F0FE018681978103
:10351A00A085B18588199909AA09BB098683978369
:10352A00A087B1870480F581E02D309779F78091E3
:10353A00AD329091AE32A091AF32B091B0328819CB
:10354A009909AA09BB098093AD329093AE32A09330
:10355A00AF32B093B032BFEFEB1AFB0AC818D908E2
:10356A00EA08FB08F801C682D782E086F18620972E
:10357A0041F18E819F81A885B985C816D906EA06C8
:10358A00FB0658F41EC086819781A085B185C816AE
:10359A00D906EA06FB06C0F1EF01EC81FD813097FE
:1035AA0091F732C08091E1319091E231D8011496BD
:1035BA008D939C9315970093DF321093E03281E04C
:1035CA002BC01092A9321092AA321092AB321092EA
:1035DA00AC3280E090E00E9419520E94925480918D
:1035EA00A9329091AA32A091AB32B091AC320E942A
:1035FA0019520E9492548091DF329091E032B1E3E5
:10360A008D3D9B0799F6CECFD8011496ED93FC9386
:10361A0015970C831D8380E0DF91CF911F910F9145
:10362A00FF90EF90DF90CF90BF90AF909F908F90D8
:02363A000895F1
:10363C004F925F926F927F928F929F92AF92BF92B6
:10364C00CF92DF92EF92FF920F931F93CF93DF9362
:10365C00CDB7DEB7CC53D140CDBFDEBFBE016F5F5F
:10366C007F4F20E1DB011D922A95E9F7FE0171964F
:10367C0024E6DF011D922A95E9F7EC59FF4F28EC5F
:10368C00DF011D922A95E9F78C01085F1F4F41E07D
:10369C0050E0C8010E940B3941E050E0BE016E5F62
:1036AC007F4FC8010E940B398A818823ACF47E01BC
:1036BC00B3E0EB0EF11C5E01E6E0AE0EB11C41E096
:1036CC0050E0B701C8010E940B39F7018081FFEF70
:1036DC00EF1AFF0A88236CF0FE013296412C512C14
:1036EC003201C12CD12C7601C394812C912C540124
:1036FC0004C0EA14FB0419F7EFCFA191AF77B0E047
:10370C00A70196010E945052460E571E681E791E44
:10371C00CC0CDD1CEE1CFF1CCC0CDD1CEE1CFF1CB1
:10372C00CC0CDD1CEE1CFF1CCC0CDD1CEE1CFF1CA1
:10373C00CC0CDD1CEE1CFF1CCC0CDD1CEE1CFF1C91
:10374C00CC0CDD1CEE1CFF1C8FEF881A980AA80A03
:10375C00B80A99F2DF0111978C91882374F242E038
:10376C0050E0BE016A5F7F4FC8010E940B39BE0159
:10377C006F5E7F4F688779874E815F81542745271D
:10378C005427C8010E940B398E819F819827892765
:10379C0098274EEF5FEF6FEF7FEF481B590B6109D6
:1037AC007109440D551D661D771DCE018B589F4F19
:1037BC008D879E87BC01C8010E940B390E9405555C
:1037CC00FC01892B29F06D857E8588859985099565
:1037DC00C8010E94E35383E0C45CDE4FCDBFDEBF63
:1037EC00DF91CF911F910F91FF90EF90DF90CF90D1
:1037FC00BF90AF909F908F907F906F905F904F9005
:02380C0008951D
:10380E002F923F924F925F926F927F928F929F92E2
:10381E00AF92BF92CF92DF92EF92FF920F931F93D0
:10382E00CF93DF93CDB7DEB7A597CDBFDEBF19829D
:10383E001A82833008F0A1C0823021F46031710504
:10384E0008F09DC00115110509F49BC02115310525
:10385E0009F499C0680119012A016CA37DA38BA3F9
:10386E00AE014F5F5F4F0E943A2E81118FC02981AA
:10387E003A81C801840D951D2817390708F485C0B3
:10388E0032017694679476946794769467947694DE
:10389E006794769467946894FF24F5F8812C912CA4
:1038AE00A12CB12C80E2F8121CC089819A8193015F
:1038BE00220F331F22953295307F3227207F3227F9
:1038CE00821B930B809768F442018A0C9B1C969482
:1038DE0087949694879497E0892299246894FF247C
:1038EE00F2F8EF2C8E010D5F1F4F282D462D6CA187
:1038FE007DA18BA10E94F52C811148C0C301880FB8
:10390E00991F880F991F880F991F880D991D880F71
:10391E00991F880F991F8415950520F4B201681B15
:10392E00790B02C060E070E08F2D90E0861B970B44
:10393E0086010A191B098017910708F48C0183E090
:10394E0090E08C0F9D1F680F791FA801C1018A0D91
:10395E009B1D0E94A053A00EB11E90E2F91204C04E
:10396E008FEF681A780A03C09FEF891A990AAC1470
:10397E00BD0408F497CF80E009C082EE07C082EE46
:10398E0005C080E003C082EE01C082EEA596CDBFD9
:10399E00DEBFDF91CF911F910F91FF90EF90DF90DF
:1039AE00CF90BF90AF909F908F907F906F905F90D1
:0839BE004F903F902F900895F7
:1039C6002F923F924F925F926F927F928F929F9229
:1039D600AF92BF92CF92DF92EF92FF920F931F9317
:1039E600CF93DF93F12C03E11BE4D8011696CD911A
:1039F600DC9117970F2EFAE9AF2EF9E4BF2EF02DC2
:103A06000F2EFEEC8F2EF4E49F2EF02D0F2EFDE0F0
:103A16003F2EF02D84C0D801ED91FC9109958D3093
:103A260021F08A3009F06BC07FC0E0911333F0E0DB
:103A3600E155F14D108280911233811154C07FC03F
:103A460090911133809311339D3009F453C0F110D6
:103A560051C060E270E08FEA9EE20E945B523C0138
:103A6600009719F0FC0111923F01EFEAFEE2019086
:103A76000020E9F73197EF5AFE422E2E0F2EFAE775
:103A8600EF2EF9E4FF2EF02DD701CD90DC90B60194
:103A96008FEA9EE20E94A953F60101900020E9F701
:103AA6003197EC19FD0981110CC02E120AC0D701FD
:103AB6001296ED91FC911397309719F0C301099571
:103AC6000CC0B4E0EB0EF11CEA14FB04E9F69F927D
:103AD6008F920E94284D0F900F9080911233882369
:103AE60039F0FF24F39489EB95E40E94574402C011
:103AF600FF24F394109213331092123310C0E09106
:103B06001333E43648F491E09E0F90931333F0E0BC
:103B1600E155F14D808303C081E080931233FE01AD
:103B26000995811178CF0EC0E0911333F0E0E1558D
:103B3600F14D1082909112339111D5CF81CF3092F1
:103B4600113385CF62E370E080E090E0DF91CF91A2
:103B56001F910F91FF90EF90DF90CF90BF90AF90A5
:103B66009F908F907F906F905F904F903F902F9097
:023B76000895B0
:103B7800FF920F931F93CF93DF9300D000D0CDB760
:103B8800DEB7029709F0B5C0613009F044C0209152
:103B98003033022F10E0C801019667E070E00E9400
:103BA8004A4E809330339BE0909FF001919FF00D37
:103BB8001124EA5CF14D9085911109C08BE0809F3A
:103BC800F001819FF00D1124EA5CF14D1BC0282FF4
:103BD80036E00F2EFBE0FF2EF02D07E010E0822FDD
:103BE80090E0F89EF001F99EF00D1124EA5CF14D89
:103BF8000196B8010E944A4E582F9085911104C031
:103C080050933033122F45C03150282F41F750932D
:103C180030331FEF3EC0623009F06DC020912F3362
:103C2800822F90E03BE0239FF0011124ED57F14DE6
:103C3800019683709078992324F401978C6F9F6F75
:103C4800019680932F3330853323D1F0282F33E02A
:103C58006BE0822F90E0689FF001699FF00D1124BE
:103C6800ED57F14D019683709078992324F40197CC
:103C78008C6F9F6F01965085511105C080932F332B
:103C880017E0120F06C03150282F19F780932F33F1
:103C98001FEF309789F18BE0DF011D928A95E9F7D4
:103CA80081E0808780910D3390910E339C012F5FC6
:103CB8003F4F29F020930D3330930E3305C0029601
:103CC80080930D3390930E3380910D3390910E3382
:103CD8008483958340FF10C0198381E2818724E0A3
:103CE80030E0AE014F5F5F4F60E582E00E94BC4D5F
:103CF80003C01FEF01C01FEF812F2496CDBFDEBF89
:0C3D0800DF91CF911F910F91FF90089563
:103D1400A8E0B0E0E0E9FEE10C944B4C8B01FC011F
:103D2400608171818281938120E831E541E050E036
:103D34000E94644969017A012CE330E040E050E0DC
:103D44000E94B94C29833A834B835C8389819A818D
:103D5400AB81BC81F80160836CE370E00E944A4E41
:103D6400DC01CB01F801A1838283C601069667E0DA
:103D740070E00E94364E84832DEA3EE840E050E035
:103D8400C701B6010E94B94C29833A836D837E83AF
:103D94008F83988789819A8124E6289F6001299FCF
:103DA400D00C11246D817E818F81988525EB35E0BF
:103DB40040E050E00E94B94C29833A836D837E83AE
:103DC400E980FA80EE0CFF1CEE0CFF1CEC0CFD1CD1
:103DD4008D819E81F5E6EF16F10410F0019604C082
:103DE40024E6E216F10419F021E030E002C020E0FC
:103DF40030E0A90144595E4F4817590768F46DE64D
:103E040071E0821B930B0E944A4EDC01CB01E80E49
:103E1400F91ECD0120E030E044E6E40EF11CF80187
:103E2400E682F78280879187255C3F4F821793074C
:103E340048F46FE170E00E944A4EDC01CB01F801C6
:103E4400858322C069E970E0821B930B0E944A4E6D
:103E5400DC01CB01F82EFF0CFF0CF80E6DE370E0D3
:103E6400CD010E944A4EDC01CB01E82EEE0C6FE13D
:103E740070E0CD010E944A4EDC01CB0122E0280F04
:103E8400F20EFE0CF801F582A383F8011286138664
:0E3E940083818F5F83832896E8E00C94944C22
:103EA200CF92DF92EF92FF92CF93DF93CDB7DEB73F
:103EB200C057D109CDBFDEBF69017A01863059F101
:103EC200873009F440C0813009F09FC020E730E01C
:103ED200AE014F5F5F4FC701B6010E94713C811175
:103EE20094C0E0910333F0910433309709F48DC00C
:103EF20080E7C80ED11CE11CF11CC092BD32D092E9
:103F0200BE32E092BF32F092C032BE016F5F7F4F8D
:103F120081E009957AC024E030E0AE014F5F5F4F47
:103F2200C701B6010E94713C81116FC0E091033359
:103F3200F0910433309709F468C0BE016F5F7F4F80
:103F420086E0099562C028E030E0AE014F5F5F4F26
:103F5200C701B6010E94713C81114DC02D813E8185
:103F62008F8198856B817C8149815A812115310528
:103F720099F421E020932B338617970709F020E06C
:103F8200CA01992781309105A1F1C8F082309105CB
:103F9200E9F00397F1F02AC0820F931F21E0861700
:103FA200970709F020E0CA0199278130910509F1AC
:103FB20030F08230910551F0039759F013C080918F
:103FC2002B338130B1F440932B3313C040932B3306
:103FD20010C080912B33823061F0843051F04093D5
:103FE2002B3307C080912B33823019F084E0809309
:103FF2002B33222351F0E0910333F09104333097B5
:1040020021F06BE273E387E00995C059DF4FCDBF22
:10401200DEBFDF91CF91FF90EF90DF90CF900895B8
:104022001F93CF93DF93CDB7DEB72897CDBFDEBF07
:104032000E944D54182F882309F4A0C0AE014F5F8F
:104042005F4F60E770E180E090E00E94084F8111CD
:1040520084C089819A81AB81BC8180FF80C09C0130
:10406200AD012E7F29833A834B835C8360E770E145
:1040720080E090E00E946C3B811173C089819A813B
:10408200AB81BC81B695A79597958795B695A7956F
:10409200979587959F708093013390930233892B74
:1040A20009F461C045EB52E364E870E180E090E01E
:1040B2000E94084F811159C06091B5327091B63299
:1040C2008091B7329091B83224E030E0AE014B5F7C
:1040D2005F4F0E949031182F811149C06F817885FE
:1040E2008091013390910233861B970B059708F05C
:1040F20040C0ED818FEF8E0F8730E8F58091B532A9
:104102009091B632A091B732B091B8329C01AD0114
:10411200285F3F4F4F4F5F4F68507109F0E0EE0F3D
:10412200FF1FED5CF44B0190F081E02D8E8109952B
:1041320081E00E94FC4C22E030E040E050E060E789
:1041420070E180E090E00E941F3A80E00E94FC4C07
:104152000E94BB55882391F010C014EF0FC014EFDA
:104162000DC014EF0BC01EEF09C014EF07C014EF0F
:1041720005C01AEF03C014EF01C014EF812F289677
:0C418200CDBFDEBFDF91CF911F910895EB
:10418E00CF92DF92EF92FF920F931F93CF93DF9315
:10419E00CDB7DEB76097CDBFDEBF6B017C0184E784
:1041AE0094E50E94804F60E070EA80E090E00E940B
:1041BE000F4CC114D104E104F10409F485C082E06E
:1041CE0090E089839A8383EB92E20E945C558B8305
:1041DE009C83CD82DE82EF82F8860E949A556C0116
:1041EE00DC015096ED91FC9151978081082E000CC8
:1041FE00990B0E94345381111CC0F601008911895C
:10420E0041E050E061E070E082E090E00E94F54312
:10421E00D8018C93D6015096ED91FC9151978081E7
:10422E0088233CF00E943F47009719F021E0FC01E3
:10423E002483D6015096ED91FC9151978081082EE2
:10424E00000C990B0E9434538130E1F5EBE1F8E25A
:10425E0001900020E9F731978F010B511842D601DA
:10426E005096ED91FC91519780812BE138E242E01E
:10427E0050E062E070E0082E000C990B0E94903521
:10428E00F82E811122C0D6015096ED91FC915197D6
:10429E00808140E150E0BE016F5F7F4F082E000C21
:1042AE00990B0E941A2BF82E882379F0D60150967E
:1042BE00ED91FC9151978081082E000C990B0E9474
:1042CE00284803C0F12C01C0F12C8F2D6096CDBF74
:1042DE00DEBFDF91CF911F910F91FF90EF90DF9096
:0442EE00CF900895D0
:1042F200EF92FF920F931F93CF93DF93CDB7DEB769
:10430200C25CD109CDBFDEBF8C01CF53DF4F188213
:104312001982C15CD04081E090E08B839C83F801DC
:10432200808191818330910501F130F481309105D2
:1043320051F0029731F15BC08430910509F445C018
:104342000597A1F154C0AE01435F5F4FBE016F5AA2
:104352007F4FC8010C960E940C2C082E000C990B62
:104362008B839C83E12CF12C44C0CE010D960E94DC
:10437200E83A082E000C990B8B839C83E12CF12CDC
:1043820038C0AE014F5A5F4FB801645F7F4FF801EA
:10439200E25BFF4F808191810E94F154082E000C54
:1043A200990B8B839C83E12CF12C23C0F80164854B
:1043B2007585868597850E94A428082E000C990B86
:1043C2008B839C83E12CF12C14C07E01F1E7EF0E6C
:1043D200F11CAE014F535F4FB701C8010C960E940A
:1043E2000540082E000C990B8B839C8302C0E12CA4
:1043F200F12CF8018081918189839A83848195814E
:10440200A681B7818D839E83AF83B887808591858E
:10441200A285B38589879A87AB87BC870E94585348
:10442200CF53DF4F48815981C15CD0406E2D7F2D23
:10443200CE0101960E94274BCE53DF4FCDBFDEBF88
:0E444200DF91CF911F910F91FF90EF900895A1
:104450004F925F926F927F928F929F92AF92BF9294
:10446000EF92FF920F931F93CF93DF9300D000D072
:10447000CDB7DEB77C0148015901742E662455245E
:104480004424872F9927AA27BB27482A592A6A2A12
:104490007B2A8BE0482ADB01CA018827AA27BB2791
:1044A000BA2FA92F982F8827482A592A6A2A7B2AA7
:1044B000442755277727452F562F672F7727442ADC
:1044C000552A662A772AA901980168E072E081E0FE
:1044D00090E00E946C3BA30192016CE072E081E0ED
:1044E00090E00E946C3B25EA30E040E050E060E163
:1044F00072E081E090E00E946C3B2FE130E040E010
:1045000050E064E172E081E090E00E946C3B20E0CA
:1045100030E04DE050E06CE172E081E090E00E941C
:104520006C3B25E830E040E050E064E072E081E080
:1045300090E00E946C3BAE014F5F5F4F68E172E01C
:1045400081E090E00E94084F811108C089819A8122
:10455000AB81BC810197A105B10569F70E94BB55EC
:10456000882319F00DC084EF0CC09401A70160E00E
:1045700070E08DE090E00E949031882311F0F3CF3D
:1045800084EF2496CDBFDEBFDF91CF911F910F91B5
:10459000FF90EF90BF90AF909F908F907F906F9023
:0645A0005F904F900895AA
:1045A600A0E0B0E0E9EDF2E20C94474CEC01EE81BC
:1045B600FF818F0104561109B9F0CF018556910983
:1045C6006C0197FF03C023E0C20ED11CD594C7949B
:1045D600D594C7946CE97FEF0E944A4EC60ED71E4B
:1045E6008FEFC81AD80A02C0C12CD12C2DE631E0B3
:1045F600D8010E9454540D2C000CEE08FF08C60E7C
:10460600D71EE81EF91E8B81082E000C990B8C0113
:10461600015011092D8122302CF4222379F1015EFB
:104626001F4F2CC0CF018459984F0E945E4E282FF1
:1046360030E0255C3F4F200F311F8D81082E000C86
:10464600990B02978530910514F027563F4F65E088
:1046560070E00E944A4EAC0197FF02C04F5F5F4F69
:10466600559547959DE3949F8001959F100D1124C4
:10467600020F131F80FF02C0015E1F4FC801110FFA
:10468600AA0BBB0B9C01AD012C0D3D1D4E1D5F1DE4
:1046960060E871E581E090E00E9442504B015C01C8
:1046A600AA810A2E000CBB0B20E13EE00E94545466
:1046B6006B017C01A9810A2E000CBB0B2CE330E0B8
:1046C6000E945454C60ED71EE81EF91E6881862F16
:1046D600660F990BAA0BBB0B8C0D9D1DAE1DBF1D46
:1046E600BC01CD01680D791D8A1D9B1DCDB7DEB7B6
:0646F600ECE00C94904C76
:1046FC000F931F93CF93DF930E94AC4040E054E0A4
:10470C008EEDFA01808320E234E0F901108280E41E
:10471C0094E0FC011082C0E6D4E06FE06883A0E86E
:10472C00B4E01C9200EA14E079E1F801708370E8BF
:10473C00FA017483F9011482FC0114826C831496BF
:10474C001C921497F8011482FA01108A118A128AA9
:10475C00138A148A158A168A178AF901108A118A03
:10476C00128A138A148A158A168A178AFC01108AEF
:10477C00118A128A138A148A158A168A178A188A39
:10478C00198A1A8A1B8A1C8A84E08D8B1E8A1F8ABE
:10479C0050961C92509751961C92519752961C927F
:1047AC00529753961C92539754961C925497559625
:1047BC001C92559756961C92569757961C92F80138
:1047CC00108A88E0818B9BE0928B138A148A858BEC
:1047DC00868B178AE0EEF5E0118210821482158226
:1047EC00138212828FED95E58093F3329093F4321D
:1047FC0080EE95E58093F1329093F23281EE95E55F
:10480C008093EF329093F03282EE95E58093ED3207
:10481C009093EE3283EE95E58093EB329093EC32ED
:10482C0084EE95E58093E9329093EA3285EE95E536
:10483C008093E7329093E832DF91CF911F910F91E3
:02484C000895CD
:10484E00CF92DF92EF92FF920F931F93CF93DF934E
:10485E00CDB7DEB7C75CD109CDBFDEBF411551055F
:10486E0009F454C0E091DB32F091DC32C080D1808B
:10487E00982F9370923009F062C02115310531F4F2
:10488E0047C00115110509F05EC044C08C836D83CD
:10489E007E8380E4FA01DE01179601900D928A95CF
:1048AE00E1F780E4F901DE01A95BBF4F01900D92A3
:1048BE008A95E1F709C083E1F801DE01A95BBF4FDC
:1048CE0001900D928A95E1F7BE016F5F7F4FC60191
:1048DE000E942049811143C06091DB327091DC321D
:1048EE00CE0101960E94A02A811139C0E114F10473
:1048FE0099F08F81833290F080E2FE013896D701D5
:10490E0001900D928A95E1F780E029C082EE27C0D2
:10491E0082EE25C082EE23C080E021C080E01FC061
:10492E008C836D837E8380E4FA01DE0117960190FD
:10493E000D928A95E1F70115110531F2BCCF933036
:10494E0009F49FCFEDCF8C836D837E8380E4FA01D3
:10495E00DE01179601900D928A95E1F7ACCFC953FF
:10496E00DF4FCDBFDEBFDF91CF911F910F91FF9033
:08497E00EF90DF90CF90089547
:10498600CF92DF92EF92FF92CF93DF9300D000D0C9
:10499600CDB7DEB7C090B932D090BA32E090BB3214
:1049A600F090BC32C114D104E104F10409F078C0DE
:1049B600AE014F5F5F4F64EF73E180E090E00E94CD
:1049C600084F81116DC049EB52E360E070E180E071
:1049D60090E00E94084F811163C08091B932909196
:1049E600BA32A091BB32B091BC32803A22E0920733
:1049F60020E1A207B105A9F489819A81AB81BC8126
:104A06000197A105B105C1F181EA92E0A0E1B0E00C
:104A16008093B9329093BA32A093BB32B093BC3232
:104A26002BC0803B9240A041B10531F589819A8126
:104A3600AB81BC8183309105A105B105E9F00497EE
:104A4600A105B10569F481EB92E0A0E1B0E08093A5
:104A5600B9329093BA32A093BB32B093BC320CC039
:104A660082EB92E0A0E1B0E08093B9329093BA3243
:104A7600A093BB32B093BC32C090B932D090BA3258
:104A8600E090BB32F090BC3280EFE82225E0E22ACB
:104A9600C092B932D092BA32E092BB32F092BC32B6
:104AA600C701B6012496CDBFDEBFDF91CF91FF903F
:084AB600EF90DF90CF9008950E
:104ABE008F929F92AF92BF92FF920F931F93CF93BD
:104ACE00DF93CDB7DEB7CC56D109CDBFDEBFF82E02
:104ADE0049015A01809133308E3309F442C0F816E1
:104AEE0031F003E310E337C08F1135C002C003E38A
:104AFE0010E3D80111962D913C9112972115310595
:104B0E0009F45BC0AE014F5F5F4FC501B4010E9457
:104B1E00713C811159C0E0910533F0910633309705
:104B2E0001F1D80111968D919C911297892B71F0FC
:104B3E00B1E1FB1205C010922C33898180932E3384
:104B4E00BE016F5F7F4F8F2D09950BC060E070E047
:104B5E008F2D099506C00D5F1F4FF80180818E3392
:104B6E0019F6F0E2FF1230C028E030E0AE014B59EA
:104B7E005F4FC501B4010E94713C811125C0AB96F7
:104B8E002EAD3FADAB97A7964EAD5FADA797C501C6
:104B9E00B401685F7F4F8F4F9F4F0E94713C811110
:104BAE0013C0E0910533F0910633309769F0BE01E2
:104BBE006B597F4F80E2099507C0E0910533F09164
:104BCE000633309771F2C2CFC459DF4FCDBFDEBF6F
:104BDE00DF91CF911F910F91FF90BF90AF909F905B
:044BEE008F90089507
:104BF2007F928F929F92AF92BF92CF92DF92EF926B
:104C0200FF920F931F93CF93DF93CDB7DEB7289711
:104C1200CDBFDEBF6A018901FE01319697E0DF0157
:104C22001D929A95E9F797EC998390912733911108
:104C320049C091E0909327332130310511F402E00D
:104C420010E08A837B836C831E830F8367E0CE012F
:104C520001960E94A74DB82E811137C081EF888737
:104C620001151105D9F1712C6894882485F80F2E4D
:104C7200F3EF9F2EF02D0F2EF2EFAF2EF02D7801D5
:104C82000130B0E21B0710F0E72CF82C0E191F09B7
:104C920009F4988661E070E0CE0108960E94F9332B
:104CA2008823C9F0B701C6010E94F933882399F01D
:104CB200A886CE0CDF1C0115110509F70FC0109252
:104CC200273312C0BB24B3940FC0BB24B3940CC0CF
:104CD200BB24B39409C0BB24B39406C083EC0E94E6
:104CE200F441882361F3F4CF8B2D2896CDBFDEBF2C
:104CF200DF91CF911F910F91FF90EF90DF90CF90B6
:0C4D0200BF90AF909F908F907F9008951D
:104D0E00CF93DF93EC01E8EAF0E38DE1DF011D9232
:104D1E008A95E9F790819F709061908384E08683F5
:104D2E009DE4978391E5908794E591879287838799
:104D3E008F89988D892B21F48B899C89892B21F061
:104D4E0082EC8093B43003C082E08093B43048EAA2
:104D5E0050E38D859E85982789279827FA018587A8
:104D6E009687A989BA89A18BB28BFD01019000208B
:104D7E00E9F79F01215031092A1B3B0BDA011F96DF
:104D8E002D933C9350974091B43046FF09C0898DC6
:104D9E009A8DFD01818F928F8F89988D878B908F41
:104DAE00442394F48D899E89E8EAF0E3858B968BF3
:104DBE006B897C89638B748B8789908D860F971F87
:104DCE000496820F931F01C0C9010C968093C330C5
:104DDE009093C430407C81F0E8EAF0E38789908DAF
:104DEE00982789279827878B908F8389948998276E
:104DFE0089279827838B948B32272327322720935A
:104E0E00B7303093B83081E080931E3380931933DE
:064E1E00DF91CF91089521
:104E2400CF92DF92EF920F93CF93DF93CDB7DEB79C
:104E34002B97CDBFDEBFDC01690119821A828B83F7
:104E44009C836D830E83E11002C082E001C080E088
:104E5400613248F00CC0FD01E60FF11D9081911103
:104E640003C0362F01C0362F6150A8F73D8342306E
:104E740081F018F4413039F048C0433059F14430DE
:104E840009F43FC042C0BE016F5F7F4F0E94FD48DE
:104E940043C0C114D104D9F11F82188619861A8619
:104EA4001B86F60101900020E9F73197EC19FD0902
:104EB400E034F10519F4CF82D88603C0C986DA86B6
:104EC400EB87AE01495F5F4FBE016F5F7F4F0E946A
:104ED400222A22C0C114D104E1F096012E5F3F4F73
:104EE4002F833887F60191819150998790819A8711
:104EF400AE01495F5F4FBE016F5F7F4F0E94642F19
:104F04000BC0CD2841F084EF07C081EF05C081EFCD
:104F140003C081EF01C081EF2B96CDBFDEBFDF91CF
:0C4F2400CF910F91EF90DF90CF90089597
:104F3000CF92DF92EF92FF920F931F93CF93DF9365
:104F4000CDB7DEB72897CDBFDEBF88230CF45FC096
:104F50006115710509F45DC04115510509F45BC087
:104F6000A82F082E000CBB0B9BE08902F001112436
:104F7000EA5CF14D9085992309F44FC09BE09A9F1C
:104F8000F0019B9FF00D1124EA5CF14D6083718369
:104F9000428353839285911142C09BE09A9FF00116
:104FA0009B9FF00D1124EA5CF14D91E09287918571
:104FB00090FF02C06DE401C066E4011511052105F2
:104FC000310549F4CC24CA94DC2C7601C982DA82FA
:104FD000EB82FC8204C009831A832B833C838D837C
:104FE0008BE08A9FF0018B9FF00D1124EA5CF14D5C
:104FF000848195818F83988728E030E0AE014F5FF0
:105000005F4F82E00E94BC4D882361F00AC08AEFA6
:1050100009C08AEF07C08AEF05C08AEF03C080E0AD
:1050200001C082EF2896CDBFDEBFDF91CF911F91E7
:0C5030000F91FF90EF90DF90CF9008955B
:10503C00EF92FF920F931F93CF93DF93182F092FAB
:10504C00F62EE72E8FE498E29F938F9389E098E4F5
:10505C009F938F93C1E1D9E2DF93CF930E9486494E
:10506C0009900020E9F72197AE0141515942612F77
:10507C00702F81E199E20E942D510F900F900F90AB
:10508C000F900F900F90892BB9F56CE278E48F2D6F
:10509C009E2D0E94914B009779F1FC018185813303
:1050AC00A9F481E080933333E6E8F2E381E090E009
:1050BC00A0E0B0E080839183A283B3831482158235
:1050CC0016821782CF010E943E1813C01092333300
:1050DC00E6E8F2E3108211821282138281E090E002
:1050EC00A0E0B0E084839583A683B783CF010E94B0
:1050FC003E1882E0809332330F931F9386E398E43B
:10510C009F938F931F921F920E94653EEF92FF9286
:10511C0084E498E49F938F931F921F920E94653EA4
:10512C000E94DE3E8DB79EB70C968DBF9EBFDF9161
:0C513C00CF911F910F91FF90EF9008950C
:105148008F929F92AF92BF92CF92DF92EF92FF928F
:105158001F93CF93DF93CDB7DEB7C75ED109CDBF1D
:10516800DEBFFE01EB56FF4F20E5DF011D922A95B9
:10517800E9F7CB51DF4F18821982C55ED04061151F
:1051880071058105910509F445C04B015C01C12CED
:10519800D12C76019E012F5F3F4FAE014B5B5F4FD5
:1051A800BE016B567F4FCE018B519F4F0E946010FE
:1051B800182F811134C0CB51DF4F88819981C55E8A
:1051C800D0404797E1F4C951DF4F1882C75ED040FD
:1051D8009E0129513F4FAE014F5F5F4FBE016B5B90
:1051E8007F4FCE018B569F4F0E94DB30811114C038
:1051F800C951DF4F8881C75ED040882369F0BFEF6F
:10520800CB1ADB0AEB0AFB0A8C149D04AE04BF041C
:1052180009F605C014EF03C00E94E75514EF812F6B
:10522800C951DF4FCDBFDEBFDF91CF911F91FF90F6
:10523800EF90DF90CF90BF90AF909F908F900895A0
:10524800CF92DF92EF92FF920F931F93CF93DF934A
:10525800CDB7DEB76097CDBFDEBF88230CF45BC047
:105268006115710509F459C0493795E0590708F0E7
:1052780056C0282F082E000C330B9BE08902F00142
:105288001124EA5CF14D9085992309F44AC0898379
:105298004B835C839BE0929FF001939FF00D112458
:1052A800EA5CF14D0480F581E02DED87FE878730BB
:1052B80034F00F2EF4E4CF2ED12CF02D05C00F2E94
:1052C800F0E5CF2ED12CF02D8BE0829FF001839F4B
:1052D800F00D1124EA5CF14D818580FF0CC08BE054
:1052E800829FF001839FF00D1124EA5CF14DC68086
:1052F800D7808CE401C085E47A018B01682F60684F
:1053080020E130E0AE014F5F5F4F82E00E943A1922
:10531800882351F008C08AEF07C08AEF05C08AEFDA
:1053280003C08AEF01C082EF6096CDBFDEBFDF9178
:10533800CF911F910F91FF90EF90DF90CF9008953C
:10534800CF93DF93FC0180E1A4E5B1E3ED0119926D
:105358008A95E9F780911933833009F06BC09C91E5
:105368009F7090639C93808183FB882780F980FBE2
:1053780093F99C9380818670997F982B9C939E705B
:10538800983019F48C91877F8C939081A4E5B1E3D0
:105398008C9190FB80F98C938781908517968D93DB
:1053A8009C93189727813085E90109900020E9F737
:1053B800CE010197821B930B15968D939C9316979C
:1053C80020812695237071F0218519962C931997C1
:1053D80022851A962C931A9722E030E01E962D9378
:1053E8003C931F9724853585A4E5B1E31C962D933E
:1053F8003C931D9743851B964C931B971E962D91A6
:105408003C911F972E5F3F4F240F311D280F391FE6
:105418001E962D933C931F979827892798271596B2
:105428008D939C93169780911E33846080931E33CE
:0C54380081E001C080E0DF91CF91089579
:10544400CF92DF92EF92FF920F931F93CF93DF934C
:10545400CDB7DEB7CC59D109CDBFDEBF411551055B
:1054640009F452C07A019B018E0103591F4F4CE687
:1054740050E062E00E94942B811153C0FE013196EA
:105484008CE6DF011D928A95E9F7F701608171814D
:105494006115710571F082819381892B79F580E41E
:1054A400898340E2CE0102960E942F3D811138C0CB
:1054B4002DC0628173816115710511F144814134FC
:1054C40008F5498350E0CE0102960E94A0530F2EA6
:1054D400F0E3CF2ED12CF02D0F2EFCE6EF2EF12C85
:1054E400F02D8E010F5F1F4F20E330E0AE014359D2
:1054F4005F4F6BEB81E00E943A1913C081EF11C03A
:1055040081EF0FC081EF0DC081EF0BC0498150E0E6
:10551400F70160817181CE0102960E94A053D7CF1A
:1055240081EFC456DF4FCDBFDEBFDF91CF911F9116
:0C5534000F91FF90EF90DF90CF90089552
:10554000AF92BF92CF92DF92EF92FF921F93CF93D1
:10555000DF9300D0CDB7DEB76C017B01DB016D912D
:105560007C91FC0182810E94EA31811157C0D701F0
:10557000ED91FC911197A280B38012968D919C9130
:1055800013970E94684D182F811142C0F601418186
:1055900050E0B601D70112968D919C9113970E940D
:1055A0003154182F811134C0B50180E090E00E9481
:1055B0002B4FB6E0CB0ED11C80ECF60111928A95F0
:1055C000E9F780EC90E089839A83AE014F5F5F4FEB
:1055D000B601D70112968D919C9113970E94385471
:1055E000182F811115C089819A818430910520F48A
:1055F000892B69F417EE0CC0C6010E94FA42182FDD
:10560000811106C0C6010E949343182F01C016EEF7
:10561000F701828193810E943C4F812F0F900F9060
:10562000DF91CF911F91FF90EF90DF90CF90BF90CF
:04563000AF9008959A
:10563400AF92BF92CF92DF92EF92FF920F931F939C
:10564400CF93DF93CDB7DEB76097CDBFDEBF8C01BC
:105654006B015A010E943F477C01892B09F44FC01A
:10566400F6018191919189839A832EE0DE0113964C
:1056740001900D922A95E1F70297D9F582E090E026
:1056840089839A834A2DBE016F5F7F4F802F0E94CA
:105694007F30882341F1873F01F18A3F99F5112337
:1056A40034F486E280931F338FEF9FEF2DC0CD2813
:1056B40031F481E380931F338FEF9FEF25C0AB2834
:1056C40031F486E180931F338FEF9FEF1DC086E294
:1056D40080931F338FEF9FEF17C085E080931F33B4
:1056E4008FEF9FEF11C082E0F701848380E090E0A8
:1056F4000BC08FE280931F338FEF9FEF05C08FEFB6
:105704009FEF02C08FEF9FEF6096CDBFDEBFDF91AA
:10571400CF911F910F91FF90EF90DF90CF90BF90AA
:04572400AF900895A5
:105728000F931F93CF93DF93F901D801445D5F4F27
:10573800309709F459C022813381232B09F456C0CC
:105748009481913208F054C0109709F453C090E343
:10575800E80119929A95E9F74D935C931197813076
:1057680059F088F0823009F047C012968C91129750
:10577800826012968C93129712968C911297816080
:1057880012968C93129785818F3F21F413968C93F0
:10579800139706C081508E3088F513968C93139713
:1057A8008FEF860F843060F5ED018F016CA784813F
:1057B8008C83448150E062817381CD0105960E94FB
:1057C800A053F80180819181892BE1F081E08DA3BC
:1057D800DE0196960190F081E02D86E001900D9211
:1057E8008A95E1F780E00FC081EF0DC081EF0BC013
:1057F80081EF09C084EF07C081EF05C081EF03C0C6
:1058080081EF01C080E0DF91CF911F910F91089542
:105818009F92AF92BF92CF92DF92EF92FF920F9337
:105828001F93CF93DF936C015B01EA018091A13252
:105838009091A232A091A332B091A432892B8A2BE5
:105848008B2B41F01092A1321092A2321092A33207
:105858001092A432E091DB32F091DC320280F381C5
:10586800E02D0180F281E02D81818330C9F08091A3
:10587800A1329091A232A091A332B091A4320196A4
:10588800A11DB11D8093A1329093A232A093A3329F
:10589800B093A4326894EE24E1F8F12C912C07C05F
:1058A800EE24EA94FE2C0F2EFDE09F2EF02DBE0173
:1058B800C7010E94CB53811111C0C05CDF4F80E249
:1058C80090E08883998300E010E09501A601B70174
:1058D800892D0E944E33811103C003C084EF01C09B
:1058E80084EFDF91CF911F910F91FF90EF90DF90A0
:0A58F800CF90BF90AF909F900895ED
:10590200EF92FF920F931F93CF93DF93D82FC62F5F
:105912007A010E943F478C01009709F45EC0C630AD
:1059220009F118F4C53031F058C0C730B1F0C930B0
:10593200A9F153C0E114F10409F44FC0D701119643
:105942008C91882324F083E0F801848346C08D2F54
:10595200DD0F990B0E94284840C083E0D8011496BD
:105962008C933BC0E114F104C1F1F70162817381B0
:10597200161617066CF4DC011296ED91FC91139742
:10598200D7018D919C91099583E0F801848325C00C
:105992008D2FDD0F990B0E9428481FC0E114F104DE
:1059A200E1F0D7018D919C911197009789F01296A1
:1059B2006D917C9113976115710551F0D801129682
:1059C200ED91FC911397099583E0F801848305C05A
:1059D2008D2FDD0F990B0E942848DF91CF911F91E7
:0859E2000F91FF90EF90089572
:1059EA00AF92BF92CF92DF92EF92FF920F931F93E3
:1059FA00CF93DF93CDB7DEB7C95CD109CDBFDEBF88
:105A0A00F82E6801012BB1F1E091DB32F091DC3222
:105A1A00A080B18084E0E816D9F180E2E8122CC0B7
:105A2A002EC08F2D8068F82EFC82C853DF4F8881E4
:105A3A009981C85CD0408D839E83BE016F5F7F4F82
:105A4A00C5010E94C25281112BC06091DB32709154
:105A5A00DC32CE0101960E94A02A182F81110EC0B5
:105A6A004E2D50E0BE01685F7F4FC6010E94A053D1
