:100000000C94EC000C9409010C9409010C94090166
:100010000C9409010C9409010C9409010C94090138
:100020000C9409010C9409010C9409010C94090128
:100030000C9409010C9409010C9409010C94573299
:100040000C9409010C9409010C9409010C94090108
:100050000C9409010C9409010C9409010C940901F8
:100060000C9409010C9409010C9409010C940901E8
:100070000C9409010C9409330C9409010C940901A6
:100080000C9409010C9409010C9409010C940901C8
:10009000DB12ED12FD124013FD124013FD1240134E
:1000A000C836C336D236CD36E136D736DC36933F46
:1000B000933FA13F803F8A3F8A3F9A3F9A3FAF3F9D
:1000C0007C3FC83FC83FC83FC83F8D3F6364696EEF
:1000D0006F70737578585B000009121B242D363F32
:1000E00048415A536C657E7719100B023D342F2618
:1000F0005158434A757C676E323B2029161F040D08
:100100007A7368615E574C452B2239300F061D14F7
:10011000636A7178474E555C646D767F4049525BE7
:100120002C253E3708011A137D746F6659504B42D7
:10013000353C272E1118030A565F444D727B6069C7
:100140001E170C053A3328214F465D546B627970B7
:10015000070E151C232A31384148535A656C777EA7
:1001600009001B122D243F3658514A437C756E6797
:100170001019020B343D262F737A6168575E454C87
:100180003B3229201F160D046A6378714E475C5577
:10019000222B3039060F141D252C373E0108131A67
:1001A0006D647F7649405B523C352E2718110A0357
:1001B000747D666F5059424B171E050C333A212847
:1001C0005F564D447B7269600E071C152A23383137
:1001D000464F545D626B707911241FBECFEFCDBFC7
:1001E000DFE3DEBF18E2A0E0B8E2ECE2F8EA02C02A
:1001F00005900D92A036B107D9F726E3A0E6B8E244
:1002000001C01D92AB3FB207E1F70E948E2E0C9405
:10021000FE4C0C9400000C94AC2F90ED980F9A308B
:1002200040F08F7D815491E0863008F090E0892F76
:1002300001C081E081700895982F80ED890F8A3088
:1002400070F08FEB890F863010F489EC05C08FE9D0
:10025000890F863018F489EA890F089580E008959F
:100260008F708A3010F4805D0895895C08958F92B4
:100270009F92AF92BF92CF92DF92EF92FF920F9335
:100280001F93CF93DF936115710541F1009731F111
:100290008A014C017A01EB016B01C80ED91ECC1505
:1002A000DD0599F05E01899182958F700E94300181
:1002B000F7018083F50180818F700E943001F70182
:1002C0008183F2E0EF0EF11CEACF9401220F331F7D
:1002D000F801E20FF31F1082C90102C080E090E034
:1002E000DF91CF911F910F91FF90EF90DF90CF9012
:1002F000BF90AF909F908F900895CF92DF92EF9232
:10030000FF920F931F93CF93DF936C018B017B01BF
:10031000CCE0D0E0C6010C2E02C0969587950A94D9
:10032000E2F78F700E943001F70181937F012497DB
:10033000CC3FFFEFDF0771F7F801148284E0DF9113
:10034000CF911F910F91FF90EF90DF90CF90089584
:100350000F931F93CF93DF938C01FB01019000203B
:10036000E9F73197EF01C61BD70BAE014F5F5F4F27
:100370000E946749C8018C0F9D1FDF91CF911F918B
:100380000F9108958F929F92AF92BF92CF92DF927A
:10039000EF92FF920F931F93CF93DF93CDB7DEB70A
:1003A000C452D240CDBFDEBFCD5DDD4F1882198271
:1003B000C352D240009709F497C04115510509F482
:1003C00093C02115310509F48FC049015A017B0101
:1003D0006C0100E210E020E130E0AE014D5D5D4FC8
:1003E000BE016F557E4F0E94E20C009709F07FC05E
:1003F00087019401A501B601CE018F5E9D4F0E9439
:10040000B914009709F073C0CE018F559E4F6C014F
:10041000812C912CCD5DDD4F88819981C352D240D2
:100420008816990608F05AC0F6018081823009F5D5
:1004300082818823F1F08181BE016F5F7F4F90E060
:100440000E94761D90E0009709F051C0AE014F5F09
:100450005F4FB601CE018F5E9D4F0E946D15F7E094
:10046000CF0ED11C009709F042C09FEF891A990A5C
:10047000D1CFF60183819481A580B680A80EB91EE4
:1004800025E0B694A7942A95E1F735E096958795EF
:100490003A95E1F7F82E0F2D10E00A151B05B0F67E
:1004A00085E0000F111F8A95E1F7F60183819481A1
:1004B000081B190B81E090E08C0F9D1F080F191F7E
:1004C000618170E090E2E92E20E04F2D80810E9452
:1004D0005B1E90E0009759F4F394DDCFCE018F5E60
:1004E0009D4F0E94AB1303C022E090E001C0282F73
:1004F000822FCC5DDD4FCDBFDEBFDF91CF911F914D
:100500000F91FF90EF90DF90CF90BF90AF909F90B2
:100510008F9008952F923F924F925F926F927F92A9
:100520008F929F92AF92BF92CF92DF92EF92FF9203
:100530000F931F93CF93DF93CDB7DEB7C15AD10985
:10054000CDBFDEBFFA0120E48E010F5B1F4FD80143
:10055000322F1D923A95E9F7AE014F5F5F4F2A01A6
:10056000DA011D922A95E9F73E01B1E86B0E711C84
:1005700020E2D3011D922A95E9F7009709F46CC097
:100580006115710509F468C0309709F465C07C01F4
:10059000B6E4EB0EF11CD7014D915C9120813181C5
:1005A0002417350708F45AC05F014B016C01FC01A8
:1005B000EC5BFF4F60817181C4010E946749F501C6
:1005C00020803180D7018D919C9180839183F601A9
:1005D000848990E0F381CF55DF4FF883C15AD04032
:1005E000D60155962C91B8012223A1F00E94761DC8
:1005F000811135C0F5012081318180E4E82EF12C94
:10060000A401B6016F5D7F4FC6010E94220E8111C9
:1006100026C003C00E943E1FEBCFD5014D915C91D7
:100620009301B401C6010E94ED0D811118C0A20111
:10063000B301CF55DF4FB881C15AD0408B2F90E026
:100640000E94AF2081110BC082019101A501B4016C
:10065000C6010E94800E03C082E001C083E090E0EA
:10066000CF55DF4FCDBFDEBFDF91CF911F910F91EF
:10067000FF90EF90DF90CF90BF90AF909F908F90C2
:100680007F906F905F904F903F902F900895CF9202
:10069000DF92EF92FF920F931F93CF93DF93E901C5
:1006A000C40FD51FF90110E3DF01A21BB30BA41780
:1006B000B50714F41193F8CF57FF02C040E050E0A3
:1006C0008901040F151F2AE0C22ED12CE12CF12C38
:1006D000611571058105910559F0A70196010E94E8
:1006E0000249605DF80162938F01B901CA01F0CF40
:1006F000CE01DF91CF911F910F91FF90EF90DF908E
:10070000CF9008952F923F924F925F926F927F9277
:100710008F929F92AF92BF92CF92DF92EF92FF9211
:100720000F931F93CF93DF9300D000D0CDB7DEB7E8
:10073000FC018B0149835A831B0181E0281A31088F
:100740002E0E3F1EC12CD12C76011B821C82812CC7
:10075000912C54018394412C512C3201AB81BC81EA
:10076000A017B107A4F5D1012C9180ED820F8A303A
:10077000A8F58B819C810A971CF0203379F521C064
:10078000AB81BC81199711F4253340F5A22FB0E05D
:10079000D097A50194010E944349C60ED71EE81EBA
:1007A000F91EC414D504E604F704C0F0AAE0B0E0D2
:1007B0000E9438494B015C01B1E02B1A3108260137
:1007C00037018B819C8101968B839C83C7CFCF019E
:1007D000800F911FE817F90711F0F7FCCF01E981AD
:1007E000FA81C082D1822496CDBFDEBFDF91CF9146
:1007F0001F910F91FF90EF90DF90CF90BF90AF903F
:100800009F908F907F906F905F904F903F902F9030
:1008100008958F929F92AF92BF92CF92DF92EF9204
:10082000FF920F931F93CF93DF936B017C01EA013B
:1008300082EB97E08A879B871886198681E090E093
:100840008E839F831C821D821A821B8218821982CA
:1008500080E893E3A1EEB1E0E0E9F1E004E610E026
:100860002A853B85C816D906EA06FB0618F12F5FD4
:100870003F4F2A873B87C81AD90AEA0AFB0AC901EF
:10088000BF010E94EE48892B59F0C9018370992756
:10089000892B59F4C901B8010E94EE48892B29F02F
:1008A00080E095E8A2EEB1E0DBCF80E893E3A1EE33
:1008B000B1E0D6CFC90160E971E00E94EE488C0139
:1008C000C90164E670E00E94EE48F0E88F2EFEED6C
:1008D0009F2EF8E2AF2EB12CB90163707727C814B0
:1008E000D904EA04FB0488F1488559854F5F5F4FBE
:1008F00048875987C818D908EA08FB0841305105CC
:1009000049F401151105A9F06115710531F400973D
:1009100021F00FC04C305105A4F4440F551F440F73
:10092000551FFA01EC50FC4180809180A280B38079
:10093000D6CF40E8842E4BE3942E46E2A42EB12C71
:10094000CECF812C912C5401CACF2C5637402A8708
:100950003B87C701B60120E831E541E050E00E9445
:1009600002492F5F3F4F2E833F8320E13EE040E06E
:1009700050E00E9402492C833D832CE330E040E0AC
:1009800050E00E9402492A833B8368837983CE0129
:10099000DF91CF911F910F91FF90EF90DF90CF905B
:1009A000BF90AF909F908F9008952F923F924F925B
:1009B0005F926F927F928F929F92AF92BF92CF92EF
:1009C000DF92EF92FF920F931F93CF93DF9300D0AC
:1009D00000D0CDB7DEB7DC0169837A831A96AD907B
:1009E000BC901B97F501E459F84FC5018654910955
:1009F0008938910508F0F8C018962D913C91199707
:100A00002C30310508F0F0C016968D919C91179707
:100A10003C0141E0641A71085FE16516710408F059
:100A2000E3C014960D911C9115970831110508F03B
:100A3000DBC012964D915C9113974B835C834C33D2
:100A4000510508F0D1C08D909C905CE3851691040F
:100A500008F0CAC0EA3348E0F40711F52230310546
:100A60000CF0C2C021303105D9F4883091050CF06A
:100A7000BBC00797A9F4073011050CF0B5C00630CC
:100A8000110571F44B815C814D3151050CF0ACC006
:100A90004C31510529F45FE0851691040CF0A4C097
:100AA00085E9A81A88EFB80AC12CD12C760170E923
:100AB000272E33243394A4E64A2E512C41EBA4165E
:100AC00047E0B40611F1C501B1010E94EE48892B3F
:100AD00059F0C50183709927892B59F4C501B201DA
:100AE0000E94EE48892B29F080E095E8A2EEB1E063
:100AF00004C080E893E3A1EEB1E0C80ED91EEA1E5F
:100B0000FB1E91E0A91AB108D9CFCF0160E971E0CD
:100B10000E94EE485C01CF0164E670E00E94EE485E
:100B2000A90141505109220F331F220F331FD90150
:100B3000A051BC41E370FF274F3F2FEF5207F9F060
:100B40004130510539F4A114B10451F0309711F43A
:100B5000009731F42D903D904D905C90139707C015
:100B600020E8222E2BE3322E26E2422E512CC20CFC
:100B7000D31CE41CF51C415051091497DDCF20E132
:100B80003EE0D8010E9431491B012C012CE330E0EA
:100B9000AB81BC810E943149AB01BC01420D531DA8
:100BA000641D751DC401990CAA0BBB0B4A015B01A6
:100BB000880E991EAA1EBB1ED30120E831E541E034
:100BC00050E00E944349860E971EA81EB91EC80C0D
:100BD000D91CEA1CFB1CE981FA81C082D182E28225
:100BE000F38280E090E002C085E090E02496CDBFE3
:100BF000DEBFDF91CF911F910F91FF90EF90DF90BB
:100C0000CF90BF90AF909F908F907F906F905F90AC
:100C10004F903F902F900895FB013097E1F1853080
:100C2000D0F5823041F028F48130E1F485E990E09C
:100C30001BC08330B9F48EEC90E08287938781E00B
:100C400090E08087918787E090E08683978386E0B5
:100C500090E0848395838CE190E0828393838FE09E
:100C600090E014C083EA9FE1828793878BE090E055
:100C7000808791878FE190E08683978387E190E07A
:100C8000848395838BE390E0828393838083918335
:100C900080E090E0089582E090E008951F93CF9364
:100CA000DF939B01009709F482C0672B09F47FC092
:100CB000FC01628573856459784F6031F7E27F07E4
:100CC00018F085E090E075C0EC01072E000C880B51
:100CD000990B44E050E00E9447031DE2FC011083A1
:100CE000688579856C30710560F79C012F5F3F4FF7
:100CF0006F5F7F4F072E000C880B990B42E050E08E
:100D00000E944703FC0110836E817F819B0121506B
:100D100031092F313105A8F69C012F5F3F4F072E77
:100D2000000C880B990B42E050E00E94470324E539
:100D3000FC0120836C817D816831710510F69C0176
:100D40002F5F3F4F072E000C880B990B42E050E0BD
:100D50000E9447031AE3FC0110836A817B816C3394
:100D6000710508F0AECF9C012F5F3F4F072E000C9E
:100D7000880B990B42E050E00E944703FC0110836E
:100D8000688179816C33710508F09BCF9C012F5FDE
:100D90003F4F072E000C880B990B42E050E00E9459
:100DA00047032AE5FC01208380E090E002C082E056
:100DB00090E0DF91CF911F9108950F931F93CF93F0
:100DC000DF93009709F48AC06115710509F486C0A4
:100DD000EB018C018CE0FB0111928A95E9F7AB01E4
:100DE000465F5F4F64E070E0C8010E94820308170D
:100DF000190719F484E090E073C02A853B852C56CE
:100E000037402A873B87FC0120812D3299F78C01DE
:100E10000F5F1F4FAE01485F5F4F62E070E0C80197
:100E20000E9482030817190729F328853985215064
:100E3000310928873987FC0120812D32D9F68C01B0
:100E40000F5F1F4FAE014A5F5F4F62E070E0C80165
:100E50000E9482030817190769F2FC0120812435DA
:100E600049F68C010F5F1F4FAE014C5F5F4F62E090
:100E700070E0C8010E9482030817190709F4BACF6D
:100E80008C010F5F1F4FFC0180818A3309F0B2CFC4
:100E9000AE014E5F5F4F62E070E0C8010E948203C6
:100EA0000817190709F4A6CF8C010F5F1F4FFC012B
:100EB00080818A3309F09ECFAE0162E070E0C80104
:100EC0000E9482030817190709F494CFFC0180815E
:100ED0008A3509F08FCF80E090E002C082E090E098
:100EE000DF91CF911F910F910895CF93DF939B01D5
:100EF000009709F46DC0672B09F46AC0FC01628594
:100F00007385AB01425351094233510540F0645699
:100F100071096233710518F085E090E05BC0EC0167
:100F2000072E000C880B990B42E050E00E9447030B
:100F30009C01688579856C30710570F76F5F7F4F14
:100F4000072E000C880B990B42E050E00E944703EB
:100F50009C016E817F81CB0101974F97E8F6072EA8
:100F6000000C880B990B42E050E00E9447039C0163
:100F70006C817D816831710578F6072E000C880B35
:100F8000990B42E050E00E9447039C016A817B81FB
:100F90006C33710508F6072E000C880B990B42E0A4
:100FA00050E00E9447039C01688179816C33710590
:100FB00008F0B2CF072E000C880B990B42E050E0EE
:100FC0000E9447032AE5FC01208380E090E002C0F4
:100FD00082E090E0DF91CF910895CF92DF92EF927F
:100FE000FF920F931F93CF93DF93009709F471C083
:100FF0006115710509F46DC0EB018C018CE0FB01FA
:1010000011928A95E9F7AB01465F5F4F62E070E0AD
:10101000C8010E9482037C010817190719F484E0B3
:1010200090E059C08A859B85823391051CF48053DA
:10103000984F02C08459984F8A879B878A859B85E1
:101040008C5697408A879B87AE01485F5F4F62E06E
:1010500070E0C7010E9482036C01E816F906F9F2FC
:1010600088859985019788879987AE014A5F5F4F88
:1010700062E070E0C6010E9482038C01C816D906A6
:1010800071F2AE014C5F5F4F62E070E00E9482033C
:101090007C010817190719F2AE014E5F5F4F62E03D
:1010A00070E00E9482038C01E816F90609F4B7CFBC
:1010B000AE0162E070E00E9482030817190709F48C
:1010C000AECFFC0180818A3509F0A9CF80E090E0A5
:1010D00002C082E090E0DF91CF911F910F91FF90CD
:1010E000EF90DF90CF900895CF93DF939B0100970F
:1010F00009F468C0672B09F465C0FC01628573853B
:101100006459784F6031F7E27F0718F085E090E08E
:101110005BC0EC01072E000C880B990B44E050E0FB
:101120000E9447039C01688579856C30710570F7D2
:101130006F5F7F4F072E000C880B990B42E050E049
:101140000E9447039C016E817F81CB0101974F97DD
:10115000E8F6072E000C880B990B42E050E00E9445
:1011600047039C016C817D816831710578F6072EFB
:10117000000C880B990B42E050E00E9447039C0151
:101180006A817B816C33710508F6072E000C880B91
:10119000990B42E050E00E9447039C0168817981ED
:1011A0006C33710508F0B2CF072E000C880B990B39
:1011B00042E050E00E9447032AE5FC01208380E0E2
:1011C00090E002C082E090E0DF91CF910895CF924D
:1011D000DF92EF92FF920F931F93CF93DF930097CD
:1011E00009F464C06115710509F460C0EB018C015C
:1011F0008CE0FB0111928A95E9F7AB01465F5F4FE6
:1012000064E070E0C8010E9482036C0108171907AE
:1012100019F484E090E04CC08A859B858C569740F9
:101220008A879B87AE01485F5F4F62E070E0C6012E
:101230000E9482037C01C816D90659F388859985D6
:10124000019788879987AE014A5F5F4F62E070E03F
:10125000C7010E9482038C01E816F906D1F2AE01A3
:101260004C5F5F4F62E070E00E9482037C010817D0
:10127000190779F2AE014E5F5F4F62E070E00E94A5
:1012800082038C01E816F90621F2AE0162E070E0FB
:101290000E9482030817190709F4BBCFFC01808163
:1012A0008A3509F0B6CF80E090E002C082E090E09D
:1012B000DF91CF911F910F91FF90EF90DF90CF9032
:1012C00008950F931F93CF93DF9300D000D0CDB735
:1012D000DEB719821A821B821C820097A9F0611561
:1012E000710591F08B01BE016F5F7F4F0E94D504A5
:1012F000009761F429813A814B815C81F801508328
:1013000041833283238302C082E090E02496CDBFE4
:10131000DEBFDF91CF911F910F910895009781F06B
:101320006115710569F0AB01FC01608171818281F9
:1013300093810E942A490E94090480E090E0089568
:1013400082E090E008950F931F93CF93DF9300D036
:1013500000D0CDB7DEB719821A821B821C8200979B
:10136000A9F06115710591F08B01BE016F5F7F4F90
:101370000E94D504009761F459814A813B812C81F8
:10138000F801508341833283238302C082E090E0DE
:101390002496CDBFDEBFDF91CF911F910F910895AD
:1013A000CF93DF93E82FCB01BA01E901009709F44D
:1013B00046C0209709F443C0E53008F040C04E2FE6
:1013C00050E06115710589F0DA01AA0FBB1FAC5D11
:1013D000BB412D913C91A881B981A217B30728F494
:1013E0002883398383E090E02FC0440F551FDA0132
:1013F000AC5DBB412D913C9128833983611571050A
:1014000009F1E23081F018F4E13049F004C0E33032
:1014100071F0E43081F0DF91CF910C944E06DF91B2
:10142000CF910C947507DF91CF910C946109DF91F6
:10143000CF910C94A309DF91CF910C94740882E0B2
:1014400090E002C080E090E0DF91CF910895009796
:1014500071F06115710559F0AB01FC01608171817A
:10146000828193810E94090480E090E0089582E0E7
:1014700090E00895E82FCB01B901009719F1232BD3
:1014800009F1E530F8F4AE2FB0E0AA0FBB1FAC5D58
:10149000BB412D913C9142175307B8F0E23061F007
:1014A00018F4E13039F004C0E33041F0E43041F0A9
:1014B0000C94DD060C94ED070C948E090C94270A0D
:1014C0000C94E70882E090E0089584E090E00895AD
:1014D000CF93DF93FC01DA01892B09F46AC01097DE
:1014E00009F467C08285938584569109809708F036
:1014F00063C0808591850C9708F05EC086819781D6
:1015000001974F9708F058C084819581489708F05B
:1015100053C0603208F050C083E0EA0119928A9506
:10152000E9F7828593858456910923E0880F991FF6
:101530002A95E1F79C919770892B8C9320853185B2
:101540002F5F3F4F2F70332735952795887F822B4C
:101550008C9380859185019611962C91119780FB33
:1015600027F911962C931197868197818F7199276E
:10157000880F991F880F991F2378822B11968C93BF
:101580001197248135812F71332773E03595279585
:101590007A95E1F78C7F822B11968C931197848139
:1015A0008295880F807E682B12966C9380E090E085
:1015B00005C082E090E002C085E090E0DF91CF912D
:1015C0000895EF92FF920F931F93CF93DF93162FFF
:1015D000009709F469C04115510509F465C021154A
:1015E000310509F461C0653008F05EC06CE0EA01C5
:1015F000E62F1992EA95E9F7E90119926A95E9F758
:10160000FC01A081A695A695A695B0E0AC59BF4F68
:10161000EA01AA87BB87E081E770F0E0EE0FFF1FC9
:10162000EC016981661F6627661FE62B7F01D1E00A
:10163000ED1AF108FA01E086F186EC0169816C7718
:1016400070E0759567957595679566837783E981F1
:10165000CE2FC370D8E0CD9FF0011124EC010A8198
:10166000029506950770EF01C02BFA01C483D5835C
:10167000FC0182818F7171F0A80FB11DF901A28761
:10168000B387E086F18666837783C483D58380E061
:1016900090E00CC0B901812FDF91CF911F910F9184
:1016A000FF90EF900C940C0682E090E0DF91CF91D8
:1016B0001F910F91FF90EF9008950F931F93CF9379
:1016C000DF93DC01FB011596CD91DC9116976581C6
:1016D00076818C91873069F1209759F1908197300C
:1016E00041F16115710529F1891323C013962D91DC
:1016F0003C91149703811481823059F411969C9186
:1017000011978181981315C012969C91828198132C
:1017100010C02017310768F0C20FD31F600F711F70
:101720006C177D0730F0201B310BCA01820F931F0D
:1017300002C080E090E0DF91CF911F910F9108955A
:10174000982F92959F70FB0131969A3010F4905D1E
:1017500001C0995CDB019C938F708A3010F4805D2E
:1017600001C0895C80830895DC01FB0110829C919B
:1017700020ED290F2A3020F42295207F208311C0EC
:101780008FEB890F863010F4975308C08FE9890FCB
:10179000863018F084E090E0089597559295907FF8
:1017A000908311968C9190ED980F9A3020F480815F
:1017B000980F90830EC09FEB980F963010F48753CC
:1017C00005C09FE9980F963028F787559081890FBB
:1017D000808380E090E00895FC01808181111AC02F
:1017E00084818730B9F485A996A98417950790F468
:1017F000DB01A80FB91F2C9130E0EC5BFF4F40815B
:101800005181FA01E80FF91F8081A901481B510994
:10181000CA01089580E090E008957F928F929F9290
:10182000AF92BF92CF92DF92EF92FF920F931F93EE
:10183000CF93DF937C01EB014A01F901892B09F475
:10184000AEC0209709F4ABC0309709F4A8C00115C9
:10185000110509F4A4C0708087E0781609F49CC0D3
:10186000258136812115310509F496C0C380D480C5
:10187000C601B8010E94DA48609F5001619FB00C18
:10188000709FB00C1124C9018C0D9D1DB8010E94E0
:10189000DA48892B11F06F5F7F4F069F9001079FF9
:1018A000300D169F300D112448815981D70160E019
:1018B00070E064177507E9F18C91781236C082E008
:1018C00078120CC0918111968C91119798132DC0AC
:1018D000928112968C911297981327C013960D91AE
:1018E0001C9114972017310700F115968D919C914A
:1018F0001697800F911F8A159B05B8F0C016D10668
:1019000020F41396CD92DC92149713964D915C912E
:1019100014978217930708F4C901841B950B159639
:101920008D939C931697AB0104C06F5F7F4F179602
:10193000C0CF888199818417950771F5481559059D
:1019400088F587E0849FD001859FB00D1124AE0DEE
:10195000BF1D982F01900D929A95E1F7488159810A
:10196000849FF001859FF00D1124EE0DFF1DA382D1
:10197000B48268817981869FA001879F500D1124D0
:10198000F701E40FF51F2A193B0925833683888167
:10199000998101968883998380E090E005C082E078
:1019A00090E002C083E090E0DF91CF911F910F9112
:1019B000FF90EF90DF90CF90BF90AF909F908F906F
:1019C0007F9008952F923F924F925F926F927F92F5
:1019D0008F929F92AF92BF92CF92DF92EF92FF923F
:1019E0000F931F93CF93DF93CDB7DEB72B97CDBF68
:1019F000DEBF009709F484C06115710509F480C049
:101A00004115510509F47CC0380149015A016B01A7
:101A10007C019C01265E3F4FA401B501C6010E94D6
:101A20000D0C009709F070C097012B5F3F4FA40188
:101A3000B501C6010E940D0C009709F065C0970121
:101A40002D5E3F4FA401B501C6010E940D0C009709
:101A500009F05AC0C7018D5B9F4F88879987FC01A9
:101A60008081811105C0F7018481883071F533C010
:101A7000C7018F5B9F4F8A879B87FC018081918183
:101A8000892B09F43FC0412C512C212C312CE885A5
:101A9000F985808190E02816390628F7EA85FB85CC
:101AA00020813181240D351D205F3F4F8301A4012A
:101AB000B501C6010E940D0CFBE14F0E511C0097B1
:101AC00019F52FEF221A320AE2CF982F9B7F9B3015
:101AD00011F08D30D9F419821A821B821C821D826A
:101AE0008DE090E08E839F8383019E012F5F3F4FA7
:101AF000A401B501C6010E940D0C009739F004C085
:101B000022E005C02AE003C0282F02C020E090E0B8
:101B1000822F2B96CDBFDEBFDF91CF911F910F910A
:101B2000FF90EF90DF90CF90BF90AF909F908F90FD
:101B30007F906F905F904F903F902F9008956F929D
:101B40007F928F929F92AF92BF92CF92DF92EF924D
:101B5000FF920F931F93CF93DF93009751F161157D
:101B6000710539F12115310521F10115110509F131
:101B7000380189015A01EB01FC01E684F784808871
:101B800091886701C80CD91CA6010E94EC0BC80EF5
:101B9000D91EAC14BD0480F0CE0DDF1DF801C0834A
:101BA000D183880D991DF3018083918380E090E0BB
:101BB00005C082E090E002C08AE090E0DF91CF9122
:101BC0001F910F91FF90EF90DF90CF90BF90AF905B
:101BD0009F908F907F906F900895EF92FF920F9358
:101BE0001F93CF93DF9300D000D0CDB7DEB71B8219
:101BF0001C8219821A820097C9F061157105B1F033
:101C00002115310599F079018E010F5F1F4F9E015B
:101C10002D5F3F4F0E949F0D009751F469817A819B
:101C2000A7018B819C810E94192102C082E090E073
:101C30002496CDBFDEBFDF91CF911F910F91FF9012
:101C4000EF900895AF92BF92CF92DF92EF92FF9202
:101C50000F931F93CF93DF93FC01892BF1F1611553
:101C60007105D9F141155105C1F1DB0112968D9134
:101C70009C911397009771F10115110571F1A081E5
:101C8000A1110BC0A481A73041F4DB01CD91DC91FF
:101C9000A5A9B6A9CA17DB0719F08E159F0501F58E
:101CA0006901EA01DB01CF01AD90BC90A501BE0145
:101CB0000E94EC0B97012A0D3B1D280F391FC216FD
:101CC000D30688F08A0D9B1DA701B8018C0F9D1FBC
:101CD0000E94674980E090E008C082E090E005C083
:101CE00087E090E002C089E090E0DF91CF911F9102
:101CF0000F91FF90EF90DF90CF90BF90AF9008953D
:101D00006F927F928F929F92AF92BF92CF92DF920B
:101D1000EF92FF920F931F93CF93DF93CDB7DEB770
:101D20002897CDBFDEBF009709F486C06115710505
:101D300009F482C04115510509F47EC00115110551
:101D400009F47AC039017A014B015C01FC01C5A09C
:101D5000D6A0A6010E94EC0B8C0D9D1DF5014081C3
:101D6000F70120813181442359F0B5016B5D7F4F2C
:101D700080E4E82EF12CA401C5010E94220E5EC071
:101D80008217930708F054C05901A81AB90A681AB3
:101D9000790A6F827886B401680F791FAE01495FB6
:101DA0005F4FC8010E94E718009789F083309105C2
:101DB00009F044C08F8198858A199B09F701208119
:101DC0003181820F931F8083918383E036C04F81DE
:101DD00058854A195B09F70180819181840F951F0D
:101DE0008083918301978D839E839E012F5F3F4F58
:101DF000BE016B5F7F4FC40101960E94B11700972F
:101E0000E9F48D819E81019649815A816B817C81A3
:101E1000480F591F611D711DF70180819181A0E05C
:101E2000B0E0481759076A077B0721F480E005C036
:101E300089E003C08AE001C082E090E02896CDBF2F
:101E4000DEBFDF91CF911F910F91FF90EF90DF9058
:101E5000CF90BF90AF909F908F907F906F9008959C
:101E60008F929F92AF92BF92CF92DF92EF92FF92AA
:101E70000F931F93CF93DF93CDB7DEB76697CDBF98
:101E8000DEBF5B0164E170E06D8B7E8B009739F102
:101E9000A114B10421F12115310509F1FC0163A55B
:101EA00074A5672BF1F0B9014A016C019E012B5E0C
:101EB0003F4FAE014F5F5F4F84850E94D00900976E
:101EC00091F4ED88FE88B601675D7F4F8E010F5F4C
:101ED0001F4F9401A501C6010E94220E04C082E09A
:101EE00001C080E090E06696CDBFDEBFDF91CF916C
:101EF0001F910F91FF90EF90DF90CF90BF90AF9028
:101F00009F908F9008958F929F92AF92BF92CF92A1
:101F1000DF92EF92FF920F931F93CF93DF93CDB792
:101F2000DEB76697CDBFDEBF5B0164E170E06D8B0D
:101F30007E8B009739F1A114B10421F121153105EF
:101F400009F1FC0167A570A9672BF1F0B9014A01FD
:101F50006C019E012B5E3F4FAE014F5F5F4F858549
:101F60000E94D009009791F4ED88FE88B601635D68
:101F70007F4F8E010F5F1F4F9401A501C6010E9484
:101F8000220E04C082E001C080E090E06696CDBFE2
:101F9000DEBFDF91CF911F910F91FF90EF90DF9007
:101FA000CF90BF90AF909F908F9008958F929F9207
:101FB000AF92BF92CF92DF92EF92FF920F931F9357
:101FC000CF93DF9300D000D0CDB7DEB7009739F1C3
:101FD0006115710521F12115310509F189014A01C8
:101FE0005B016C01BE016F5F7F4FF90180810E9430
:101FF000A00BBE016D5F7F4FF80181810E94A00B95
:10200000B6016F5C7F4F84E0E82EF12C8E010F5FEC
:102010001F4F9401A501C6010E94220E02C082E05A
:1020200090E02496CDBFDEBFDF91CF911F910F913D
:10203000FF90EF90DF90CF90BF90AF909F908F90E8
:102040000895AF92BF92CF92DF92EF92FF920F93DB
:102050001F93CF93DF93CDB7DEB76D97CDBFDEBFB4
:10206000FC01892B09F474C06115710509F470C075
:102070004115510509F46CC00115110509F468C03A
:10208000D801AA5BBF4F8C91982F9F7009F05AC05E
:102090001697CD90DD90EC901297C98EDA8EEB8E6C
:1020A00013960D90BC91A02DAC8FBD8FD801AB5B6A
:1020B000BF4F9C91B92FB295BF70A181BA1344C094
:1020C0009F70A2819A1340C082958F70948189136A
:1020D0003BC06A017B015F01CF010E94800E009727
:1020E000A9F59E012F5F3F4FAE01435F5F4FF501A2
:1020F0006585CE0149960E94E10A009739F5F601FF
:10210000408151819E01235F3F4FB701C5010E946D
:10211000300F0097D9F4F601408151819E012F5F65
:102120003F4FB701C5010E94830F009779F4F60174
:10213000408151819E01245E3F4FB701C5010E943D
:10214000D60F04C024E005C02BE003C0282F02C036
:1021500022E090E0822F6D96CDBFDEBFDF91CF9160
:102160001F910F91FF90EF90DF90CF90BF90AF90B5
:1021700008952F923F924F925F926F927F928F922B
:102180009F92AF92BF92CF92DF92EF92FF920F9306
:102190001F93CF93DF93CDB7DEB72C97CDBFDEBFB4
:1021A0006C015B014A013801009711F482E091C093
:1021B00061157105D9F3452BC9F3012BB9F3DC0186
:1021C0008C91811197C014968C911497873009F0E7
:1021D00091C0D5968D919C91D697FB01E80FF91F80
:1021E000008110E0F601EC5BFF4F0190F081E02DE3
:1021F000E80FF91F4081041B110909F46CC01F820C
:10220000188619821A821B821C821D821E82F4018A
:1022100040815181BA01600F711F2617370708F4FA
:1022200055C0D7962D913C91D897820F931F481B8C
:10223000590BB801680F791F6A0D7B1D8A0D9B1D14
:102240000E947049F40180819181800F911F8083E9
:10225000918301978F8398879E012F5F3F4FA8013D
:10226000BE01695F7F4FC50101960E94B1170097BB
:1022700009F04BC08F819885D4012D913C91BC0110
:102280006F5F7F4F29803A804B805C80260E371E1F
:10229000411C511CB201A1011901412C512C4215C4
:1022A000530564057505A1F40296281B390B2D838F
:1022B0003E8320E030E0A801BE016B5F7F4F8A0DB6
:1022C0009B1D0E94B117009731F01FC083E001C031
:1022D0008AE090E01AC0D601D596ED91FC91D69790
:1022E000EA0DFB1D808190E00196E816F90608F4DE
:1022F0005DCF7C01F40120813181B6016B5C7F4FA1
:102300008301A501C6010E94220E2C96CDBFDEBF1F
:10231000DF91CF911F910F91FF90EF90DF90CF90C1
:10232000BF90AF909F908F907F906F905F904F90F5
:102330003F902F900895AF92BF92CF92DF92EF928D
:10234000FF920F931F93CF93DF93FB01009761F1EF
:10235000309751F14115510539F10115110521F160
:10236000628173816115710511F1E616F70611F5A9
:102370006901EA01A080B180A501BE010E94EC0BB9
:1023800097012A0D3B1D280F391FC216D306A8F04E
:102390008A0D9B1DBE01680F791FA701C8010E940D
:1023A000674980E090E00BC082E090E008C088E0E0
:1023B00090E005C087E090E002C089E090E0DF9106
:1023C000CF911F910F91FF90EF90DF90CF90BF9032
:1023D000AF900895EF92FF920F931F93009791F0A3
:1023E0006115710579F02115310561F089019A01B6
:1023F000AB01BC016F5D7F4FE0E4EE2EF12C0E943B
:102400009B1102C082E090E01F910F91FF90EF902E
:1024100008958F929F92AF92BF92CF92DF92EF92E8
:10242000FF920F931F93CF93DF93CDB7DEB76497DF
:10243000CDBFDEBF009779F16115710561F12115FE
:10244000310549F1DC011C96EC91E63010F5F0E025
:10245000EE0FFF1FEC5DFB41A080B180B5E1AB1634
:10246000B104B8F469019A01AB014C01BC01675D8C
:102470007F4F75018E010F5F1F4F0E949B110097C8
:1024800061F49601A501B801F40184850E943A0A1D
:1024900004C081E001C082E090E06496CDBFDEBF61
:1024A000DF91CF911F910F91FF90EF90DF90CF9030
:1024B000BF90AF909F908F900895CF92DF92EF9250
:1024C000FF920F931F93CF93DF9300D000D0CDB72F
:1024D000DEB7009721F16115710509F1211531056C
:1024E000F1F069019A01AB01BC016F5C7F4FE4E040
:1024F000EE2EF12C8E010F5F1F4F0E949B11009753
:1025000081F4B601C8010E94B40B009751F4B601E2
:102510006F5F7F4FCE0103960E94B40B02C082E032
:1025200090E02496CDBFDEBFDF91CF911F910F9138
:10253000FF90EF90DF90CF9008954F925F926F924F
:102540007F928F929F92AF92BF92CF92DF92EF9243
:10255000FF920F931F93CF93DF93CDB7DEB7CF5684
:10256000D109CDBFDEBF009709F4DDC0611571054B
:1025700009F4D9C0DC011496EC911497EE2309F408
:10258000CCC0E73009F4C9C0D7960D911C91D897FB
:102590000115110509F4C1C04E2E512CF2013897D6
:1025A000E830F10508F0BFC04A015B016C01E85B4F
:1025B000FF4F0C9424492115310509F4B4C0DE0104
:1025C000AC5BBF4F80E48D9389E0F90101900D92DF
:1025D0008A95E1F70AE010E093C09E012C5B3F4F23
:1025E00080E4F90181939F01CD010E945D12009763
:1025F00009F097C003E010E083C00132110508F034
:102600008EC09E012F5F3F4F0E94EA11009709F094
:1026100088C09E012C593F4FA401B501C6010E94FC
:102620000912009709F07DC0AE014F5B5F4FD601E4
:1026300052966C91CE018C599F4F0E94680A009768
:1026400009F06FC0AE014C5B5F4F63E470E0CE01F8
:1026500001960E941921009709F063C0F601948148
:102660009C3019F09A3009F04BC025968FAD259714
:102670008F7725968FAF25979A3009F041C03CC0DF
:102680002115310509F44FC00132110508F047C08A
:1026900089E0F901DE01119601900D928A95E1F72A
:1026A0009E012C593F4FC6010E9409120097C9F59F
:1026B000AE01465F5F4FD60152966C91CE018C59A8
:1026C0009F4F0E94680A009761F5AE014C5B5F4F17
:1026D0006CE070E0CE0101960E941921009709F587
:1026E000F60194819D3011F09B3051F425968FAD09
:1026F00025978F779B3009F4806425968FAF2597B7
:10270000B6016B5C7F4F78018E010C5B1F4F94010B
:10271000A501C6010E94220E04C020E005C027E0EA
:1027200003C0282F02C022E090E0822FC159DF4F62
:10273000CDBFDEBFDF91CF911F910F91FF90EF9042
:10274000DF90CF90BF90AF909F908F907F906F90D1
:102750005F904F900895FC01892B99F08085882324
:1027600021F09F01275F3F4F02C020E030E0A481AD
:10277000B5814D915C9162817381808191810C94CE
:102780009D1282E090E00895EF92FF920F931F93C5
:10279000F801009711F161157105F9F02115310566
:1027A000E1F03097D1F0DC01D796ED90FC90D8970E
:1027B000A081B181AE15BF0528F4E082F18283E0EB
:1027C00090E00DC089019A01AB01E082F182BC0169
:1027D0006B5C7F4F0E949B1102C082E090E01F91D2
:1027E0000F91FF90EF900895CF93DF93CDB7DEB7B1
:1027F000C154D109CDBFDEBF0097A9F061157105A5
:1028000091F0AB01FC0184E0898380E4DE01129643
:1028100001900D928A95E1F761E470E0CE01019696
:102820000E94EA2002C082E090E0CF5BDF4FCDBF84
:10283000DEBFDF91CF9108956F927F928F929F922A
:10284000AF92BF92CF92DF92EF92FF920F931F93BE
:10285000CF93DF93CDB7DEB76497CDBFDEBF0097D0
:1028600079F16115710561F12115310549F14901D0
:102870003A015B016C01BC016F5D7F4F90E4E92E72
:10288000F12C89019A01A501C6010E94220E009730
:10289000C9F4BE016F5F7F4FC4010E94F41300971B
:1028A00089F4B601635C7F4F84E1E82EF12C8E0140
:1028B0000F5F1F4F9301A501C6010E94220E02C0A7
:1028C00082E090E06496CDBFDEBFDF91CF911F9193
:1028D0000F91FF90EF90DF90CF90BF90AF909F90BF
:1028E0008F907F906F9008958F929F92AF92BF923A
:1028F000CF92DF92EF92FF920F931F93CF93DF93CC
:10290000CDB7DEB76497CDBFDEBF009701F161158B
:102910007105E9F021153105D1F04A015B016C0127
:10292000BE016F5F7F4FC9010E94F413009789F4C5
:10293000B601675C7F4F84E1E82EF12C8E010F5FBA
:102940001F4F9401A501C6010E94220E02C082E021
:1029500090E06496CDBFDEBFDF91CF911F910F91C4
:10296000FF90EF90DF90CF90BF90AF909F908F90AF
:102970000895AF92BF92CF92DF92EF92FF920F93A2
:102980001F93CF93DF93CDB7DEB7C054D109CDBF2E
:10299000DEBFFC01892B09F472C06115710509F4D1
:1029A0006EC04115510509F46AC02115310509F4BD
:1029B00066C082E1DF011D928A95E9F76083718329
:1029C0004283538324833583D9018D919C918683DF
:1029D00097831086DB01AA5BBF4FAD90BC90119727
:1029E0008A159B0528F4F901A082B18283E04AC0D0
:1029F0007801CA016F01F901A082B182FB01EC5B91
:102A0000FF4F608171814D915C910E946749D601B1
:102A1000AD90BC90F501808181111DC040E450E073
:102A20006FEF70E0CE0101960E948249D6011696A2
:102A30002D913C91179714964D915C911597129694
:102A40006D917C9113978E010F5F1F4FC5010E94FE
:102A5000800E0097C1F4E114F10499F0D6011496A8
:102A6000ED91FC9115974081518112966D917C9169
:102A7000139797018D919C910E94741404C082E079
:102A800001C080E090E0C05CDF4FCDBFDEBFDF91D2
:102A9000CF911F910F91FF90EF90DF90CF90BF905B
:102AA000AF9008950F931F93CF93DF93EC018B01A9
:102AB000BC016C5F7F4F40E250E0C8010E9470494A
:102AC000BE01685D7F4F40E250E0C8018096DF9113
:102AD000CF911F910F910C9470492F923F924F927A
:102AE0005F926F927F928F929F92AF92BF92CF929E
:102AF000DF92EF92FF920F931F93CF93DF93CDB7A7
:102B0000DEB7C054D109CDBFDEBF009709F400C1C4
:102B10006115710509F4FCC04115510509F4F8C0AF
:102B20004A015B016C01DC016D907C90C30105964C
:102B30000E945D0B009761F4F60100811181A401F0
:102B4000B501C80143960E945D0B0097A1F433C004
:102B5000D3011A96ED90FC901B97F60126813781E0
:102B600044815581628173818C01C3010E94B91037
:102B7000009711F3D0C0F801208D318D2834310534
:102B800031F5BE016F5F7F4F0E945215D60114963A
:102B9000ED91FC9115974081518112966D917C9138
:102BA00013979E012F5F3F4F8D919C910E941C14A3
:102BB000009709F0B0C0D601ED90FC90A401B501DA
:102BC000C7014A960E945D0B0097A1F429C02034EA
:102BD000310511F02AE09DC0D6011496ED91FC91CB
:102BE00015974081518112966D917C9113979C01AC
:102BF000C801DCCFD7015F962D913C919097283486
:102C0000310541F7F6012681378144815581628182
:102C100073818C01C7010E942110009709F07BC0CD
:102C2000F60180819181FC01ED5BFF4F2081222321
:102C3000B1F0FC01EF5BFF4F80819181892B51F254
:102C4000412C512C212C312CF60160807180F30134
:102C5000ED5BFF4F808190E028163906F8F0A40163
:102C6000B5018EE294EE0E945D0B009709F44EC010
:102C700021E0D60118962C931897199624E0FC01B0
:102C800001900D922A95E1F7D6011D96FC01389628
:102C900085E001900D928A95E1F738C0F301EF5B72
:102CA000FF4F00811181040D151DA401B501C8015C
:102CB00040960E945D0B009739F4FFEF2F1A3F0AF0
:102CC0008BE1480E511CC0CFD8015596ED90FC9079
:102CD000569759962D913C915A97E216F30609F0B2
:102CE00079CFD6011496ED91FC9115972081318111
:102CF00012964D915C911397B801695E7F4F8C01DC
:102D0000C3010E94220E0097C1F205C020E001C05D
:102D100022E090E001C0282F822FC05CDF4FCDBFA2
:102D2000DEBFDF91CF911F910F91FF90EF90DF9069
:102D3000CF90BF90AF909F908F907F906F905F905B
:102D40004F903F902F9008958F929F92AF92BF9295
:102D5000CF93DF93D901109709F45DC060387105F6
:102D600081059105C8F028E130E0E3E0F0E04B0197
:102D70005C01022E04C0B694A794979487940A9499
:102D8000D2F72850310989288A288B2811F43197E5
:102D9000EECFEF01229604C0E0E0F0E0C1E0D0E029
:102DA0004115510559F02D913C9111972C173D0774
:102DB00028F4CD93DC9383E090E02FC0CD93DC9397
:102DC0004115510529F19F01A3E0220F331FAA9558
:102DD000E1F7DE011197AE1BBF0BA40FB51FF7FD86
:102DE0000FC04B015C01022E04C0B694A7949794C7
:102DF00087940A94D2F78D92319728503109EFCFFA
:102E0000C230D10528F08C2F81508068FA01808370
:102E100080E090E002C082E090E0DF91CF91BF902F
:102E2000AF909F908F9008952F923F924F925F9214
:102E30006F927F928F929F92AF92BF92CF92DF92CA
:102E4000EF92FF920F931F93CF93DF93DC011B014F
:102E5000FA01892B09F46DC06115710509F469C087
:102E6000EB01288139812115310509F465C08C9168
:102E700087FF4EC08F77482F50E08A010F5F1F4FAA
:102E80002017310708F458C08150843008F054C02E
:102E9000309721F4F1010083118348C01082118220
:102EA00012821382CD01019660E070E09A01C3E0C6
:102EB000220F331FCA95E1F728503109EC01C99060
:102EC000CE018C2C912CA12CB12C7901E60EF71E91
:102ED0002401350104C0440C551C661C771CEA947F
:102EE000D2F77301620180809180A280B380C80C08
:102EF000D91CEA1CFB1CC082D182E282F38268509A
:102F000071097E01EA1AFB0A4E155F05B8F6C2CFB9
:102F1000309739F090E0A0E0B0E080839183A28305
:102F2000B38381E090E0E1018883998380E090E0C1
:102F300005C082E090E002C084E090E0DF91CF9194
:102F40001F910F91FF90EF90DF90CF90BF90AF90C7
:102F50009F908F907F906F905F904F903F902F90B9
:102F600008958F929F92AF92BF92CF92DF92EF928D
:102F7000FF920F931F93CF93DF93CDB7DEB72B97BD
:102F8000CDBFDEBF8C016B015A0179011A861B8609
:102F90001E821F8218861986AE014A5F5F4F0E940B
:102FA0001417009709F047C08E819F81A885B985C5
:102FB000B7FE0DC0442755274A195B09052E000CA2
:102FC000660B770B84179507A607B70790F1A50145
:102FD000BB0C660B770B4A015B01880E991EAA1E7B
:102FE000BB1EC501B401E114F10429F0F701808290
:102FF0009182A282B38225E030E02A873B879E013E
:10300000265F3F4FAE014F5F5F4F0E94A4160097AF
:1030100091F4F601408151818A859B8548175907B3
:1030200061F4BE016F5F7F4FC8010E94674920E0D5
:1030300005C021E003C0282F02C02AE090E0822FC3
:103040002B96CDBFDEBFDF91CF911F910F91FF90E7
:10305000EF90DF90CF90BF90AF909F908F900895AA
:103060004F925F926F927F928F929F92AF92BF9298
:10307000CF92DF92EF92FF920F931F93CF93DF9344
:10308000CDB7DEB72797CDBFDEBF590125E030E0D1
:103090002E833F83009709F482C00115110509F4BE
:1030A0007EC06115710509F47AC0442321F0FC014A
:1030B000208127FD19C0FC01AB0141505109E12CD1
:1030C000F12CE416F506B1F03191311107C02081E1
:1030D00027FD10C02FEFE21AF20AF3CF3F3F51F461
:1030E000208127FDF7CF06C0CC24C394D12CE12C3E
:1030F000F12C02C0C12CD12C38018B012C01B6015E
:10310000600F711F6E197F0980E090E09E012A5FB9
:103110003F4FAE014F5F5F4F0E94A416009709F02A
:1031200042C04E815F814A018FEF881A980AC80118
:10313000880D991D8C0D9D1D8E199F09A114B10438
:1031400051F0F301208131812817390720F4808361
:10315000918383E027C0F30180839183A114B1049C
:1031600001F122E0F5012193CF01BE016F5F7F4F96
:103170000E946749C114D10421F0F501E80DF91D41
:103180001082C601880D991DA8014E195F09B20170
:103190006E0D7F1D8A0D9B1D0E94674902C082E053
:1031A00001C080E090E02796CDBFDEBFDF91CF91D8
:1031B0001F910F91FF90EF90DF90CF90BF90AF9055
:1031C0009F908F907F906F905F904F9008958F9217
:1031D0009F92AF92BF92CF92DF92EF92FF920F93A6
:1031E0001F93CF93DF9300D000D0CDB7DEB71B8203
:1031F0001C8219821A82009709F468C04115510592
:1032000009F464C05A017B016C018E010D5F1F4FF0
:1032100020E030E041E060E270E00E94301800976A
:1032200009F059C0460180E2880E911C0250110934
:1032300020E030E041E060E270E0C4010E9430181C
:10324000009709F048C02B813C8189819A81280F21
:10325000391F2B5F3F4FE114F10451F0F5018081DC
:1032600091818217930720F42083318323E031C0BA
:10327000F50120833183E114F10451F183E0F7017A
:1032800080838EEF820F8183128280E383832550B7
:1032900024838E010D5F1F4F97012B5F3F4F41E04D
:1032A00060E270E0C6010E9430180097A1F42B8103
:1032B0003C812B5F3F4F2E0D3F1D0250110941E015
:1032C00060E270E0C4010E94301805C022E001C035
:1032D00020E090E001C0282F822F2496CDBFDEBFD2
:1032E000DF91CF911F910F91FF90EF90DF90CF90E2
:1032F000BF90AF909F908F9008956115710519F060
:10330000FB0180831182CB01089508950F931F93D1
:10331000CF93DA01FB018B01080F191F20E030E089
:103320000E171F07C9F0C19168E070E091E0832F8C
:10333000881F8827881F220F331F41E05C2F5923E5
:1033400009F440E0481719F085E028273058990F14
:103350006150710961F7E4CF2C9311963C93CF91A2
:103360001F910F910895BC016F5F7F4FFC01818118
:10337000825090E0AB01480F591F0C948619FB0155
:1033800080E48283838184FF02C08AE001C087E0F9
:103390008183CF010E94B31980E00895CB0127E11A
:1033A000FB01228327E021830E94B31980E0089566
:1033B000FB018381982F937026E12283923010F4D1
:1033C0008BE107C0933059F485FF02C087E401C048
:1033D00087E28183CF010E94B31980E0089582EED5
:1033E0000895CB012BE1FB01228327E021830E947A
:1033F000B31980E00895CB0122E0FB01228327E08E
:1034000021830E94B31980E00895CB0121E4FB01E0
:10341000228327E021830E94B31980E00895EF9270
:10342000FF920F931F93CF93DF9300D0CDB7DEB7FA
:103430007C01FC0180818250082F10E0AE014F5FBB
:103440005F4FB701C8010E948619F701E00FF11F15
:1034500099818081981306C09A818181981302C056
:1034600080E001C085EE0F900F90DF91CF911F910A
:103470000F91FF90EF9008950F931F93CF93DF93D9
:1034800000D000D0CDB7DEB78C01809100DA9091EA
:1034900001DAA09102DAB09103DA89839A83AB83CF
:1034A000BC8344E050E0BE016F5F7F4FC8010E94C3
:1034B0005A49892B41F1F8018081843021F58181BD
:1034C0008730C9F038F4833091F0853091F0813045
:1034D000C1F41BC08F3089F020F4883091F48AEF5A
:1034E00015C0813161F08F3F61F484ED0FC082ED32
:1034F0000DC086ED0BC087ED09C084EF07C083EFD8
:1035000005C081EE03C080E001C081ED2496CDBFEF
:10351000DEBFDF91CF911F910F910895EF92FF923F
:103520000F931F93CF93DF93FB01009719F480E073
:1035300090E01CC03097D9F36081718161157105ED
:10354000B1F322813381232B91F38F01EC01898127
:103550000E947D197C01F80162817381CE010E9475
:103560003A1CEF2821F3892B11F3C801DF91CF9189
:103570001F910F91FF90EF900895FC018081918140
:103580000895FC018281938108950F931F93CF9337
:10359000DF938C01FC01C081D181209739F0CE01ED
:1035A0000E948519CE0102960E94C91BF801108263
:1035B0001182DF91CF911F910F910895CF93DF93E7
:1035C000FB019081913031F0D0F0923039F093309E
:1035D00049F011C093E127E335EE1CC094E12BEFD5
:1035E00034EE18C09181983271F0983681F096E1EE
:1035F00029EB34EE0FC090E020E030E00BC09EE0FD
:1036000020E735EE07C096E127E734EE03C096E1E8
:1036100025E334EE4FEF5FEF4283538340E04917D9
:1036200089F0D9012D5F3F4FE90123975881581345
:1036300007C011968D919C9112978283938302C04B
:103640004F5FEDCF82819381019611F482EF01C02B
:1036500080E0DF91CF910895AF92BF92CF92DF9239
:10366000EF92FF921F93CF93DF9300D0CDB7DEB7D9
:103670007C016B01DB016D917C91FC0182810E94D8
:10368000DE1A811157C0D601ED91FC911197A280ED
:10369000B38012968D919C9113970E94B21B182FA4
:1036A000811142C0F701418150E0B701D601129665
:1036B0008D919C9113970E94A61B182F811134C0E5
:1036C000B50180E090E00E94FA2AB6E0EB0EF11C12
:1036D00080ECF70111928A95E9F780EC90E08983FC
:1036E0009A83AE014F5F5F4FB701D60112968D915D
:1036F0009C9113970E94AC1B182F811115C08981D2
:103700009A818430910520F4892B69F417EE0CC05E
:10371000C7010E940F1A182F811106C0C7010E940D
:103720003C1A182F01C016EEF601828193810E9487
:10373000B81B812F0F900F90DF91CF911F91FF90B9
:10374000EF90DF90CF90BF90AF900895DC01179677
:10375000ED91FC9118970994DC011996ED91FC917B
:103760001A970994DC011B96ED91FC911C97099422
:10377000CF93DC011D96ED91FC911E970995C82F02
:1037800061E070E080E090E00E94FA2A8C2FCF91F7
:103790000895CF93DF93EC01E881F981309729F008
:1037A0006189728980810E944E2A18821982DF9174
:1037B000CF9108950F931F93CF93DF93EC018B016B
:1037C00089819A810E94232AF801808191818B83CB
:1037D0009C83828193818D839E83848195818F8355
:1037E00098878681978189879A87808591858B873D
:1037F0009C87848595858F87988B828593858D8717
:103800009E8780899189898B9A8B80E0DF91CF9107
:103810001F910F9108950F931F93CF93DF93CDB70F
:10382000DEB76297CDBFDEBF8C01BE016F5F7F4FF9
:103830000E94DA1BD80111966D917C911297139614
:10384000ED91FC911497CE010196099581110AC062
:1038500089899A89F801818B928B0580F681E02D08
:10386000C80109956296CDBFDEBFDF91CF911F9150
:103870000F910895CF93DF936115710519F480E0DE
:1038800090E00EC00097D9F3EB01FC012081288362
:1038900089839A83CB010E940B1C8111F0CFCE014A
:1038A000DF91CF9108950F931F93CF93DF93609192
:1038B0006028709161286115710511F481EE2EC0A8
:1038C000EC010E948E1A80936028909361280097E3
:1038D000A9F3FC0122813381232B81F320813181E3
:1038E0002115310559F389818330B9F42F5F3F4F9A
:1038F00001E010E043E150E060E070E080E00E9411
:10390000A71F81110BC0E0916028F0916128019000
:10391000F081E02D8181887F818380E0DF91CF91EC
:103920001F910F91089580E698E20E94C51A80E0E9
:103930000895CF93DF930097D1F0EC010E94BD1A58
:10394000892B11F481EE14C0CE010E94C11A892B7B
:10395000C9F38091602890916128892B11F00E9411
:10396000931CC0936028D093612880E001C082EE50
:10397000DF91CF9108950F931F93F801309719F1BC
:103980008370833001F110821182922F977050E082
:10399000292F30E0823041F063E0440F551F6A95D3
:1039A000E1F7242B352B0BC0542F4427242B352B28
:1039B00093E0660F771F9A95E1F7262B372B20832C
:1039C000318380E001C082EE1F910F910895FA01CA
:1039D0003097E1F1A0916028B091612812960D9086
:1039E000BC91A02D11960D90BC91A02D11969C918B
:1039F00091110BC0813091F028F0823039F580E2CE
:103A000090E01AC088E590E017C0813039F018F0D6
:103A1000823039F01BC080E890E00EC080E490E076
:103A20000BC06830710518F484E290E005C068307E
:103A3000710531F480EA91E08083918380E00895FC
:103A40006031710518F488E490E0F6CF82EE0895B5
:103A5000EF92FF921F93CF93DF93CDB7DEB7C75C92
:103A6000D109CDBFDEBF7901E0916028F0916128D6
:103A7000208131818C836D837E834115510541F016
:103A800083E0FA01DE01179601900D928A95E1F725
:103A9000BE016F5F7F4FC9010E94BF19182F8111AE
:103AA0001AC06091602870916128CE0101960E9431
:103AB0002C1B182F81110FC0E114F10461F04F810C
:103AC000453048F050E043505109BE01685F7F4FD8
:103AD000C7010E946749812FC953DF4FCDBFDEBFA9
:103AE000DF91CF911F91FF90EF9008959B0140E0EF
:103AF00050E0BC0180E00C94281D0F931F93CF93DE
:103B0000DF93CDB7DEB7C75CD109CDBFDEBFE09193
:103B10006028F0916128208131818E010F5F1F4F55
:103B200097ECF80111929A95E9F78C836D837E8367
:103B3000B801C9010E94CE19811107C060916028A7
:103B400070916128C8010E942C1BC953DF4FCDBF63
:103B5000DEBFDF91CF911F910F910895880F880FDD
:103B600060E070E082600C947D1D0F931F93CF93F3
:103B7000DF93CDB7DEB7C75CD109CDBFDEBFFA0199
:103B8000A0916028B09161284D915C91982F93701D
:103B90008C836D837E83923010F494E107C0933060
:103BA00069F585FF02C090E401C090E2DE0117963E
:103BB00001900D929A95E1F78901BE016F5F7F4FE9
:103BC000CA010E94D81981111CC0609160287091AF
:103BD0006128CE0101960E942C1B811112C0011593
:103BE000110571F08F81833258F080E2FE01389622
:103BF000D80101900D928A95E1F702C082EE01C0D2
:103C000080E0C953DF4FCDBFDEBFDF91CF911F9161
:103C10000F910895807C4032510511F4836004C0F7
:103C20004034510541F4836220E030E0AB0160E0B4
:103C300070E00C94B51D82EE08950F931F93CF93FF
:103C4000DF93CDB7DEB7C75CD109CDBFDEBF8C0136
:103C5000E0916028F0916128808191811C821D8211
:103C60001E82BE016F5F7F4F0E94F11981111AC041
:103C70006091602870916128CE0101960E942C1BF2
:103C8000811110C09F81933261F40115110551F02B
:103C900090E2FE013896D80101900D929A95E1F7D5
:103CA00001C086EEC953DF4FCDBFDEBFDF91CF919C
:103CB0001F910F910895AF92BF92CF92DF92EF9232
:103CC000FF920F931F93CF93DF93CDB7DEB7C95CFD
:103CD000D109CDBFDEBFF82E6801012B09F43FC02A
:103CE00084E0E81619F080E2E81239C0E09160281B
:103CF000F0916128A080B1808E0108531F4F8F2D55
:103D00000E94BB1C81112CC080E2E81203C08F2DE1
:103D10008068F82EFC82C853DF4F88819981C85C87
:103D2000D0408D839E83BE016F5F7F4FC5010E948F
:103D3000FB19811115C06091602870916128CE0136
:103D400001960E942C1B81110BC04E2D50E0BE012C
:103D5000685F7F4FC6010E94674980E001C082EE24
:103D6000C753DF4FCDBFDEBFDF91CF911F910F91C2
:103D7000FF90EF90DF90CF90BF90AF900895CF92DB
:103D8000DF92EF920F931F93CF93DF93CDB7DEB700
:103D9000A097CDBFDEBF009709F16C0180E2E82E4D
:103DA0008E010F5F1F4F20E040E060E070E080E098
:103DB0000E945B1E811113C084E0F801D6010190BE
:103DC0000D928A95E1F7D601149685E0FE013996A9
:103DD00001900D928A95E1F780E001C082EEA096F5
:103DE000CDBFDEBFDF91CF911F910F91EF90DF909C
:103DF000CF900895AF92BF92CF92DF92EF920F9340
:103E00001F93CF93DF9300D000D0CDB7DEB78031C2
:103E1000910530F56115710519F16B015C0184E0C4
:103E2000E82E8E010F5F1F4F26E042E060E070E059
:103E300080E00E945B1E811114C081E090E002C00E
:103E4000880F991FAA94E2F729813A81822393234C
:103E500021E0892B09F020E0F601208380E001C0F9
:103E600082EE2496CDBFDEBFDF91CF911F910F91DF
:103E7000EF90DF90CF90BF90AF900895AF92BF9238
:103E8000CF92DF92EF920F931F93CF93DF93CDB733
:103E9000DEB7A097CDBFDEBF6115710509F449C03B
:103EA0009C01285031092830310508F042C06B01CF
:103EB0005C0180E2E82E8E010F5F1F4F20E040E0A2
:103EC000B50182E00E945B1E811134C08CE1FE01CD
:103ED0003596D60101900D928A95E1F720E041E0F8
:103EE000B50182E00E945B1E811124C084E0F801CC
:103EF000D6015C9601900D928A95E1F788E1FE016A
:103F00003996D601909601900D928A95E1F720E0BE
:103F100042E0B50182E00E945B1E81110BC0D60118
:103F2000D89688E0F80101900D928A95E1F780E03B
:103F300001C082EEA096CDBFDEBFDF91CF911F9171
:103F40000F91EF90DF90CF90BF90AF9008952F9298
:103F50003F924F925F926F927F928F929F92AF9219
:103F6000BF92CF92DF92EF92FF920F931F93CF9366
:103F7000DF93CDB7DEB7A597CDBFDEBF19A21AA2DA
:103F8000833010F082EE93C0823019F460317105F5
:103F9000C8F70115110511F480E089C0211531051C
:103FA00089F328012CA33DA35A011B01F82EAE0171
:103FB0004F5D5F4F0E94E71C811179C029A13AA192
:103FC000C8018A0D9B1D28173907E0F2350165E00D
:103FD000769467946A95E1F720E22BA3C12CD12C4B
:103FE000812C912C84149504B8F68BA18032C1F4F5
:103FF00089A19AA1930155E0220F331F5A95E1F749
:10400000821B930B809760F46401CA0CDB1CD6946E
:10401000C794D694C79497E0C922DD2424E02BA34B
:10402000EBA08E010F5F1F4F2C2D462DB1018F2D60
:104030000E945B1E81113BC0C30123E0880F991FC2
:104040002A95E1F78C0D9D1D880F991F880F991FE8
:104050008A159B0520F4B501681B790B02C060E04E
:1040600070E02BA1822F90E0861B970B820108192C
:1040700019098017910708F48C0181E090E08C0FFA
:104080009D1F680F791FA8018CA19DA1880D991D06
:104090000E946749800E911E9BA1903221F42FEF60
:1040A000621A720A9FCF8FEFC81AD80A9BCFA596C3
:1040B000CDBFDEBFDF91CF911F910F91FF90EF90A9
:1040C000DF90CF90BF90AF909F908F907F906F9038
:1040D0005F904F903F902F9008950F931F93CF9331
:1040E000DF93CDB7DEB7C75CD109CDBFDEBF4115C9
:1040F000510549F18A01E0916028F0916128208101
:1041000031818C836D837E83BE016F5F7F4FC901D8
:104110000E94051A81111AC060916028709161286F
:10412000CE0101960E942C1B811110C04F81453099
:1041300060F050E043505109BE01685F7F4FC801F5
:104140000E94674902C082EE01C080E0C953DF4F80
:10415000CDBFDEBFDF91CF911F910F910895CF9218
:10416000DF92EF92FF920F931F93CF938C016B011D
:104170007A0180E090E00E941D1E811123C0E09131
:104180006028F09161280190F081E02D80818330DA
:1041900019F4C0E280E402C0C0E080E040E250E0F8
:1041A000B6010E940A1E81110DC0A701B8018C2F13
:1041B0008068CF911F910F91FF90EF90DF90CF908B
:1041C0000C946D20CF911F910F91FF90EF90DF9095
:1041D000CF900895CF92DF92EF92FF920F931F93AB
:1041E000CF93DF93CDB7DEB7C058D109CDBFDEBFC7
:1041F0007C016B018A01CE0101960E944A21A60131
:10420000B701CE0101960E941D23B801CE0101968F
:104210000E94A62380E090E0C058DF4FCDBFDEBFF4
:10422000DF91CF911F910F91FF90EF90DF90CF9092
:104230000895CF92DF92EF92FF920F931F93CF9347
:10424000DF93CDB7DEB7C05CD109CDBFDEBF6C0157
:104250008B017A01CE0101960E949428980140E0DA
:1042600050E0B601CE0101960E94AC28B701CE0104
:1042700001960E94642980E090E0C054DF4FCDBFDA
:10428000DEBFDF91CF911F910F91FF90EF90DF90F4
:10429000CF900895DC018CE5FD0111928A95E9F734
:1042A00094E1EAE9F5EE01900D929A95E1F708950F
:1042B0002F923F924F925F926F927F928F929F9236
:1042C000AF92BF92CF92DF92EF92FF920F931F9324
:1042D000CF93DF93CDB7DEB72E97CDBFDEBF8983F7
:1042E0009A836D877E87FC019C01205C3F4F80E0B4
:1042F00090E0DC01BA2FA92F982F88274081842BCA
:10430000BA2FA92F982F88274181842BBA2FA92F44
:10431000982F88274281842BBA2FA92F982F88277E
:104320004381842B81939193A193B1932E173F07DF
:1043300009F7AD85BE854D905D906D907C9013978B
:104340004B825C826D827E8214968D909D90AD90A2
:10435000BC90179718960D911D912D913C911B972C
:104360001C964D915D916D917C911F9750964D904B
:104370005D906D907C905397212C312CE22D822DF5
:104380008F70C980DA8094E0899FC00CD11C112401
:10439000CF82D886D601CD90DD90ED90FC90C98675
:1043A000DA86EB86FC868B819C81AD81BE81FBE148
:1043B000B695A79597958795FA95D1F7CB80DC8030
:1043C000ED80FE80F5E0CC0CDD1CEE1CFF1CFA95A8
:1043D000D1F78C299D29AE29BF29C984DA84EB84C1
:1043E000FC848C0D9D1DAE1DBF1D6C017D01C40C98
:1043F000D51CE61CF71CE43198F4D901C8018427C8
:104400009527A627B72788219921AA21BB21842790
:104410009527A627B72787569648AD47B54A3AC08D
:10442000E83278F4D501C40180279127A227B32769
:1044300084279527A627B7278F559441A642B149CF
:1044400029C0EC33C8F4D901C801842B952BA62BC5
:10445000B72B88219921AA21BB21280139014422A7
:1044600055226622772284299529A629B7298452C4
:104470009344A44EB0470EC0D501C40180279127B4
:10448000A227B32784279527A627B7278A529E43BA
:10449000AD49B5438C0D9D1DAE1DBF1D24013501D9
:1044A000E2E07694679457944794EA95D1F77501C2
:1044B0006401FEE1CC0CDD1CEE1CFF1CFA95D1F76B
:1044C000C428D528E628F728F1013397EF70FF2795
:1044D000EE0FFF1FEE0FFF1F49805A80E40DF51D00
:1044E00080809180A280B38049845A846B847C84CC
:1044F00084249524A624B724F1013897EF70FF2770
:10450000EE0FFF1FEE0FFF1F69807A80E60DF71D8B
:10451000408051806280738084249524A624B7242F
:10452000F1013E97EF70FF27EE0FFF1FEE0FFF1F09
:1045300049805A80E40DF51D40805180628073806F
:1045400084249524A624B724880C991CAA1CBB1C7F
:10455000811CEF81F88580829182A282B382FFEF75
:104560002F1A3F0A8B809C80AD80BE802A013B01C0
:10457000E0E52E16310449F0B901A8019701860142
:104580008B839C83AD83BE83F9CEED85FE858080D1
:104590009180A280B380880D991DAA1DBB1D8083C8
:1045A0009183A283B38384819581A681B7814B8057
:1045B0005C806D807E80840D951DA61DB71D848353
:1045C0009583A683B78380859185A285B385C80E20
:1045D000D91EEA1EFB1EC086D186E286F38684853C
:1045E0009585A685B785080F191F2A1F3B1F0487CD
:1045F00015872687378780899189A289B389480FD3
:10460000591F6A1F7B1F408B518B628B738B2E96B9
:10461000CDBFDEBFDF91CF911F910F91FF90EF9043
:10462000DF90CF90BF90AF909F908F907F906F90D2
:104630005F904F903F902F9008954F925F926F92AE
:104640007F928F929F92AF92BF92CF92DF92EF9222
:10465000FF920F931F93CF93DF938C017B01EA01AD
:104660006C0124E5C20ED11CF60180818F7390E4A9
:10467000592E581A5801F4E1AF0EB11C20E4622EF5
:10468000712C480128E5820E911C1C161D060CF0A9
:104690004CC0852D90E0C817D90714F44C2E0EC0DD
:1046A00030E453120AC080E4F701D50101900D9265
:1046B0008A95E1F790E4492E0CC0452CF301E81BE4
:1046C000F90BCF01442D50E0B7018A0D9B1D0E94CC
:1046D0006749842D90E0E80EF91EC81BD90B5410D1
:1046E00004C0B801C5010E945821F6018081918162
:1046F000A281B381840D911DA11DB11D8083918381
:10470000A283B383892B8A2B8B2B61F4F4018081E4
:104710009181A281B3810196A11DB11D80839183F6
:10472000A283B38380E4582EB0CFDF91CF911F9145
:104730000F91FF90EF90DF90CF90BF90AF909F9040
:104740008F907F906F905F904F900895AF92BF923F
:10475000CF92DF92EF92FF920F931F93CF93DF934D
:10476000EC016B017C0144E5E40EF11CF701808152
:104770008F738E010C5E1F4FF801E80FF11D90E85A
:104780009083BB24B394B80EF0E4BF1631F0F80167
:10479000EB0DF11D1082B394F7CF883340F0BE01CA
:1047A000C8010E945821F8011192BA94E9F7F70163
:1047B00080819181A281B38153E0880F991FAA1F44
:1047C000BB1F5A95D1F797015E01F0E5AF0EB11C02
:1047D000F90182939F01892F9A2FAB2FBB27AE1629
:1047E000BF06B1F7DE01A85ABF4F8D919D910D9084
:1047F000BC91A02DAC01BD01E3E0440F551F661F25
:10480000771FEA95D1F7F70180819181A281B38169
:10481000FDE1B695A79597958795FA95D1F7842BE5
:10482000952BA62BB72B9E01245B3F4FF50182935E
:104830005F01892F9A2FAB2FBB27E217F307B1F740
:10484000BE01C8010E94582184E1FE01D6010190F9
:104850000D928A95E1F7F601C6014496DE012B819F
:1048600020832A81218349915991699179915283B9
:104870002C9123833496E817F90781F7DF91CF91C4
:104880001F910F91FF90EF90DF90CF90BF90AF906E
:1048900008952F923F924F925F926F927F928F92E4
:1048A0009F92AF92BF92CF92DF92EF92FF920F93BF
:1048B0001F93CF93DF93CDB7DEB7C455D140CDBFA3
:1048C000DEBFC55BDE4F88839983CB54D140C15B8B
:1048D000DE4F288339834A835B83CF54D140CB5C3E
:1048E000DE4F6883C553D140CA5CDE4F7883C65320
:1048F000D140CF5BDE4F188219821A821B82C154CD
:10490000D1409E012F5B3F4FCF5DDE4F288339831F
:10491000C152D140AE014F535F4FCD5DDE4F488352
:104920005983C352D14088559F4FC35BDE4F888364
:104930009983CD54D140CF5BDE4F688179818A81E4
:104940009B81C154D140C15BDE4F488059806A8051
:104950007B80CF54D140641575058605970509F411
:10496000CCC3BE016F5F7F4FC95CDE4F6883798324
:10497000C753D140FB01CB5CDE4FA881B981C55341
:10498000D1408C91838311968C91119782831296DA
:104990008C911297818313968C9113978083149630
:1049A0003496CF5DDE4F88819981C152D140E8179E
:1049B000F90739F7C95CDE4F28803980C753D140E9
:1049C0003101D10114964D915D916D917C911797B4
:1049D000D8968D919D910D90BC91A02DE4E02E0E66
:1049E000311C6A017B0117E0F694E794D794C794D1
:1049F0001A95D1F78A019B01E9E1000F111F221FCF
:104A0000331FEA95D1F7C02AD12AE22AF32A4A01B4
:104A10005B01FEE0880C991CAA1CBB1CFA95D1F71F
:104A20008A019B01E2E13695279517950795EA954E
:104A3000D1F7082919292A293B290C251D252E25BE
:104A40003F256A017B01F3E0F694E794D794C7947D
:104A5000FA95D1F70C251D252E253F25F301C080A1
:104A6000D180E280F380F10140A151A162A173A144
:104A7000C40ED51EE61EF71EC00ED11EE21EF31E8A
:104A80008C019D014FE0000F111F221F331F4A951B
:104A9000D1F7AC01BD01E1E1769567955795479552
:104AA000EA95D1F7042B152B262B372BAC01BD0132
:104AB000FDE0440F551F661F771FFA95D1F72C01B3
:104AC0003D01E3E17694679457944794EA95D1F7D2
:104AD000442A552A662A772A4026512662267326BA
:104AE000FAE0B695A79597958795FA95D1F7482658
:104AF00059266A267B264C0C5D1C6E1C7F1CD1013E
:104B0000DC964D925D926D927C92DF97CD5DDE4F8B
:104B1000E881F981C352D1402E163F0609F050CFEB
:104B2000C55BDE4F28803980CB54D140F8E82F0E8A
:104B3000311C9E012F5F3E4FCD5ADE4F28833983B3
:104B4000C355D140C901F1014191519161917191D8
:104B5000DC014D935D936D937D93CD01C35BDE4F7F
:104B600048805980CD54D140E415F50569F7CD5AF8
:104B7000DE4FA881B981C355D1405C966D907D9080
:104B80008D909C905F97C95BDE4F688279828A82A4
:104B90009B82C754D14058964D905D906D907C900B
:104BA0005B97C35CDE4F488259826A827B82CD5319
:104BB000D14054964D905D906D907C905797C75C16
:104BC000DE4F488259826A827B82C953D140509617
:104BD0008D919D910D90BC91A02DCD5ADE4FE88115
:104BE000F981C355D1404484558466847784CB5D74
:104BF000DE4F488259826A827B82C552D14040840E
:104C0000518462847384CF5CDE4F488259826A8209
:104C10007B82C153D1404480558066807780C35DDC
:104C2000DE4F488259826A827B82CD52D140008118
:104C30001181228133814EEA55EECB5BDE4F4883F2
:104C40005983C554D140CB5BDE4FE881F981C5540F
:104C5000D1404191519161917191CB5BDE4FE883DD
:104C6000F983C554D1404C015D01EAE1880C991CDF
:104C7000AA1CBB1CEA95D1F76C017D01F6E0F69405
:104C8000E794D794C794FA95D1F7C828D928EA2889
:104C9000FB282C013D01E5E1440C551C661C771CEA
:104CA000EA95D1F74C015D01FBE0B694A794979487
:104CB0008794FA95D1F784289528A628B7288C24BC
:104CC0009D24AE24BF246C017D01E9E1F694E794B4
:104CD000D794C794EA95D1F72C013D01F7E0440C35
:104CE000551C661C771CFA95D1F7C428D528E628F0
:104CF000F728C824D924EA24FB24C95CDE4FE881C4
:104D0000F981C753D14081909190A190B190C95C35
:104D1000DE4FE883F983C753D140480D591D6A1D02
:104D20007B1D4C0D5D1D6E1D7F1D2C013D014094B2
:104D3000509460947094C35CDE4F88809980AA8000
:104D4000BB80CD53D140482059206A207B20C75CCE
:104D5000DE4FC880D980EA80FB80C953D140C82289
:104D6000D922EA22FB22C424D524E624F7244C0DC0
:104D70005D1D6E1D7F1DC95BDE4FA880B980CA8096
:104D8000DB80C754D1404A0D5B1D6C1D7D1DCB5D82
:104D9000DE4FC880D980EA80FB80C552D140C40E66
:104DA000D51EE61EF71EC75DDE4FC882D982EA8295
:104DB000FB82C952D14048015901EEE1880C991C8F
:104DC000AA1CBB1CEA95D1F768017901F2E0F694C0
:104DD000E794D794C794FA95D1F7C828D928EA2838
:104DE000FB2828013901E3E1440C551C661C771CA3
:104DF000EA95D1F748015901FDE0B694A79497943C
:104E00008794FA95D1F7482859286A287B28C42422
:104E1000D524E624F72428013901E6E17694679445
:104E200057944794EA95D1F748015901FAE0880C64
:104E3000991CAA1CBB1CFA95D1F784289528A62892
:104E4000B728240135014C245D246E247F24CB5DDA
:104E5000DE4F488259826A827B82C552D140C35D4F
:104E6000DE4F488059806A807B80CD52D140CF5C34
:104E7000DE4F88809980AA80BB80C153D1404824EE
:104E800059246A247B244022512262227322C35D6A
:104E9000DE4FC880D980EA80FB80CD52D140C82047
:104EA000D920EA20FB20C424D524E624F724CB5DB6
:104EB000DE4F488059806A807B80C552D140C40C47
:104EC000D51CE61CF71CC40ED51EE61EF71EC35CDF
:104ED000DE4F688079808A809B80CD53D140C95B4A
:104EE000DE4F688279828A829B82C754D140CF5C30
:104EF000DE4F88809980AA80BB80C153D140CB5DB2
:104F0000DE4F88829982AA82BB82C552D140CB5B98
:104F1000DE4F48815981C554D1404E5A564ED9F181
:104F2000C75CDE4F488059806A807B80C953D1407E
:104F3000C35CDE4F488259826A827B82CD53D14066
:104F4000C75CDE4F88839983AA83BB83C953D14052
:104F5000C75DDE4F88819981AA81BB81C952D1404A
:104F6000C35DDE4F688079808A809B80CD52D140BE
:104F7000CF5CDE4F688279828A829B82C153D140A6
:104F8000C35DDE4F088319832A833B83CD52D14012
:104F90009701860158CECF5FDE4FC882D982EA8260
:104FA000FB82C150D140CB5FDE4F088319832A8337
:104FB0003B83C550D140C35DDE4F488059806A8035
:104FC0007B80CD52D140C75FDE4F488259826A82D2
:104FD0007B82C950D140C75DDE4F688079808A806E
:104FE0009B80C952D140CF5EDE4F688279828A822F
:104FF0009B82C151D140CB5EDE4F88839983AA83C7
:10500000BB83C551D140C75CDE4F88809980AA80A0
:10501000BB80C953D140C75EDE4F88829982AA8285
:10502000BB82C951D140C35CDE4FA880B980CA8021
:10503000DB80CD53D140C35EDE4FA882B982CA82E5
:10504000DB82CD51D140CF5CDE4FC880D980EA8071
:10505000FB80C153D140C35FDE4FC882D982EA8250
:10506000FB82CD50D140CD5ADE4FE881F981C35546
:10507000D14081919191A191B191CD5ADE4FE883B8
:10508000F983C355D140F10140815181628173811F
:10509000840F951FA61FB71F81939193A193B1937E
:1050A0001F01C35BDE4F48805980CD54D1404E165E
:1050B0005F06C9F6CF5BDE4F288139814A815B816B
:1050C000C154D1402F5F3F4F4F4F5F4FCF5BDE4FFB
:1050D000288339834A835B83C154D140CB5CDE4F44
:1050E00048815981C553D140405C5F4FCB5CDE4F56
:1050F00048835983C553D1401ECCCC5ADE4FCDBF17
:10510000DEBFDF91CF911F910F91FF90EF90DF9065
:10511000CF90BF90AF909F908F907F906F905F9057
:105120004F903F902F90089528EAFC0111922A9504
:10513000E9F7AEEAB6EEFC01E857FF4F88559F4FFE
:105140004D915D916D917D914193519361937193D7
:10515000E817F907A9F708952F923F924F925F92AF
:105160006F927F928F929F92AF92BF92CF92DF9277
:10517000EF92FF920F931F93CF93DF93EC018B017C
:1051800049015A018C819D81AE81BF8140E4C42ECA
:10519000D12CE12CF12CC81AD90AEA0AFB0A8C148A
:1051A0009D04AE04BF0410F4750164010896A601C5
:1051B000B8018C0F9D1F0E9467498C819D81AE8133
:1051C000BF81880D991DAA1DBB1D80349105A105C5
:1051D000B105B8F48C839D83AE83BF83DF91CF91FB
:1051E0001F910F91FF90EF90DF90CF90BF90AF9005
:1051F0009F908F907F906F905F904F903F902F90F7
:1052000008951E0188E0280E311C21E030E040E0C6
:1052100050E0B101CE010E9449248C189D08AE08CF
:10522000BF082401350186E076946794579447942B
:105230008A95D1F7B8016C0D7D1DA3019201CE01B5
:105240000E944924D301C2010196A11DB11D26E08F
:10525000880F991FAA1FBB1F2A95D1F74881598132
:105260006A817B81840F951FA61FB71F888399834E
:10527000AA83BB83B501A4014F73552766277727FF
:105280004C835D836E837F8336E0440C551C3A95D6
:10529000E1F7C40CD51CC8018C0D9D1DBC01C101DA
:1052A000DF91CF911F910F91FF90EF90DF90CF9002
:1052B000BF90AF909F908F907F906F905F904F9036
:1052C0003F902F900C9467498F929F92AF92BF921C
:1052D000CF92DF92EF92FF920F931F93CF93DF93C2
:1052E000EC018B014C815D816E817F81C880D9800A
:1052F000EA80FB80C40ED51EE61EF71EC882D98246
:10530000EA82FB8283E0CC0CDD1CEE1CFF1C8A953C
:10531000D1F787EF9FEFAFEFBFEF841B950BA60B85
:10532000B70B4C015D012FE382229924AA24BB24F0
:10533000DB01CA010196A11DB11D8C839D83AE8343
:10534000BF83FE01E40FF51F20E82087A4014C5F16
:105350005F4F089660E070E08C0F9D1F0E948249AD
:105360008C819D81AE81BF81880D991DAA1DBB1DB9
:10537000AC01BD014C5F5F4F6F4F7F4FFE01E40FEB
:10538000F51FF086AC01BD014B5F5F4F6F4F7F4F44
:10539000FE01E40FF51FE086AC01BD014A5F5F4FDF
:1053A0006F4F7F4FFE01E40FF51FD086AC01BD01AA
:1053B000485F5F4F6F4F7F4F4C835D836E837F836A
:1053C0000796A11DB11DFE01E80FF91FC0869A01C5
:1053D000AB0196E056954795379527959A95D1F765
:1053E000BE01685F7F4FCE010E944924C801FE01C3
:1053F000E857FF4FC855DF4F9C012C5F3F4FD90145
:1054000040814E934081518162817381452F562F97
:10541000672F77274083518362837383A817B90767
:1054200079F73496C901EC17FD0731F7DF91CF9179
:105430001F910F91FF90EF90DF90CF90BF90AF90B2
:105440009F908F900895FB01DC018C91811124C005
:1054500085E59AE28083918389E59AE2828393834A
:1054600085E69AE2868397838BE59AE28483958327
:1054700081E89AE28487958787EB9AE28087918713
:105480008DE69AE28287938788EF9AE286879787EC
:10549000108A118A80E0089580EF0895811103C079
:1054A000CB010C94F82A81EE08950E94A53180E08A
:1054B000089580E0089583E0FB0180834F5F5F4F94
:1054C00088E50E947B3280E00895FA014081518195
:1054D00088E50E949E3280E00895CF93DF931F926B
:1054E000CDB7DEB782E0898341E050E0BE016F5F57
:1054F0007F4F88E50E947B3280E00F90DF91CF9153
:105500000895CF93DF931F92CDB7DEB781E08983F3
:1055100041E050E0BE016F5F7F4F88E50E947B3223
:1055200080E00F90DF91CF910895CF93DF931F928A
:10553000CDB7DEB7898389810E94AD318823D9F345
:1055400060E070E08BEB92E30E949B3161E070E0E1
:10555000CE0101960E942B3280E00E943D320E94D3
:1055600006328130E1F30F90DF91CF910895CF9310
:10557000DF93CDB7DEB72897CDBFDEBF41E060E057
:1055800070E080E00E94952A87E893E10197F1F7A7
:1055900000C00000809104DA909105DAA09106DA4B
:1055A000B09107DA89839A83AB83BC8344E050E0EF
:1055B000BE016B5F7F4F88E50E949E32FE013596EB
:1055C000DE0111969E01275F3F4F81E041919D9141
:1055D000491380E0E217F307C9F7811102C080EF99
:1055E00001C080E02896CDBFDEBFDF91CF91089546
:1055F00080E00895611571058105910559F0E3EC8E
:10560000F9E03197F1F700C000006150710981099C
:105610009109F0CF089587E298E20E94991C81E0F9
:1056200098E20E94531C81111092002808958EE781
:105630009FE7089580E090E00895CF92DF92EF9287
:10564000FF920F931F93CF93DF938B01EC017C01AB
:10565000E60EF71ECE15DF0581F06E018991829569
:105660008F700E9430010E94F632F60180818F70A7
:105670000E9430010E94F632EDCF80E00E94F632A7
:10568000C801880F991FDF91CF911F910F91FF9053
:10569000EF90DF90CF90089565E070E08EEC96EE8D
:1056A0000E941D2B80E090E008950F931F93CF93ED
:1056B000DF93EC018E0189910E94F632F80180811E
:1056C0008111F8CFDF91CF911F910F9108951F9312
:1056D000CF93DF93CDB7DEB7A697CDBFDEBFCE01A8
:1056E00001960E94873D182F66E070E0CE01059676
:1056F0000E941D2B80E0912FA696CDBFDEBFDF91CB
:10570000CF911F910895CF930E94C8478091C6E121
:105710009091C7E108968093E1289093E228409108
:10572000AA285091AB2821EE38E26AEC71EE80E8AD
:1057300091EE0E94C201C82F81110AC06091E12838
:105740007091E2288091AA289091AB280E941D2B8D
:105750000E94C8478C2F90E0CF9108951F93CF935C
:10576000DF93CDB7DEB7C054D109CDBFDEBF0E94F5
:10577000C84780919ADC90919BDC88968093F336A1
:105780009093F436BE016F5F7F4F8BE090E00E94F4
:105790003E1F81111DC04091A8285091A92823EFD8
:1057A00036E3BE016F5F7F4F80E99FED0E94C2012B
:1057B000182F81110AC06091F3367091F4368091F0
:1057C000A8289091A9280E941D2B0E94C847812FCC
:1057D00090E0C05CDF4FCDBFDEBFDF91CF911F9166
:1057E00008951F93CF93DF93CDB7DEB72997CDBF31
:1057F000DEBFCE0101960E94BF1E182F811106C088
:1058000069E070E0CE0101960E941D2B812F90E08F
:105810002996CDBFDEBFDF91CF911F9108950F93E1
:105820001F93CF93DF931F92CDB7DEB78C01BE01DC
:105830006F5F7F4F0E94FA1E811106C099819111FE
:1058400003C0C8010E94AE1D90E00F90DF91CF9180
:105850001F910F9108958AE090E00E940F2C811112
:105860000AC08BE090E00E940F2C811104C08CE0F4
:1058700090E00E940F2C08951F93CF93DF93CDB734
:10588000DEB7C054D109CDBFDEBFBE016F5F7F4F11
:1058900080E090E00E94761D182F811106C060E420
:1058A00070E0CE0101960E941D2B812F90E0C05C1C
:1058B000DF4FCDBFDEBFDF91CF911F9108950F93D2
:1058C0001F93CF93DF9300D0CDB7DEB78CED95E07B
:1058D00089839A8300E010E00E94C8471092E32871
:1058E000AE014F5F5F4F63EE78E288E49EED0E9469
:1058F0008A02082F0115110511F0C8010AC069813B
:105900007A8183EE98E20E941D2B0E94C84780E0B6
:1059100090E00F900F90DF91CF911F910F9108951C
:10592000CF92DF92EF92FF921F93CF93DF937C0190
:10593000EC016E01CE18DF080E94EF32182F0E9492
:105940000D018823A1F0812F0E941C018295807F88
:1059500088830E94EF32182F0E940D01882339F0AE
:10596000812F0E941C019881892B8993E2CFC60167
:10597000DF91CF911F91FF90EF90DF90CF9008952E
:105980001F93CF93DF93CDB7DEB7C056D109CDBFFC
:10599000DEBFCE018F5B9F4F0E94902C803219F0AA
:1059A0008CE79FE715C0AE014F5F5F4FBE016F5B95
:1059B0007F4F80E090E00E94AF20182F811106C039
:1059C00060E470E0CE0101960E941D2B812F90E0D3
:1059D000C05ADF4FCDBFDEBFDF91CF911F91089539
:1059E0008091A8289091A9280E94902C8093F3364A
:1059F0009093F436892B19F080E090E008958CE7BD
:105A00009FE708958091AA289091AB280E94902C3E
:105A10008093E1289093E228892B19F080E090E0B0
:105A200008958CE79FE70895AF92BF92DF92EF92BF
:105A3000FF920F931F93CF93DF93CDB7DEB72C97D1
:105A4000CDBFDEBFD12C8E010F5F1F4F7E0129E03D
:105A5000E20EF11C58010E94EF32F80181938F0190
:105A6000882319F0EE15FF05B1F7FF92EF92CE01F2
:105A70000B969F938F9384ED96EE9F938F93BF9297
:105A8000AF920E949949CDBFDEBF823021F01DE761
:105A90008FE7D82E12C009851A856B857C8523EE89
:105AA00038E240E050E082E00E94A71F182F69858D
:105AB0007A8583EE98E20E941D2B812F9D2D2C96D6
:105AC000CDBFDEBFDF91CF911F910F91FF90EF907F
:105AD000DF90BF90AF90089527E0EAEDF6EEA2E6E2
